:020000040800F2
:1000000040110020A5040008DD010008DF01000800
:10001000E3010008E7010008EB0100080000000010
:10002000000000000000000000000000EF010008D8
:10003000F101000800000000F3010008F5010008CC
:10004000BF040008BF040008BF040008BF04000884
:10005000BF040008BF040008BF040008BF04000874
:10006000BF040008BF040008BF040008BF04000864
:10007000BF040008BF040008BF040008BF04000854
:10008000BF040008BF040008BF040008BF04000844
:10009000BF040008BF040008BF040008BF04000834
:1000A000BF040008BF040008BF040008BF04000824
:1000B000BB4E0008733600085B360008BF0400081A
:1000C000BF040008BF040008BF040008BF04000804
:1000D000BF040008BF040008BF040008633C000818
:1000E000BF040008BF040008BF04000800F002F8C5
:1000F00000F05FF80AA090E8000C82448344AAF163
:100100000107DA4501D100F054F8AFF2090EBAE860
:100110000F0013F0010F18BFFB1A43F0010318473B
:1001200040850000608500000A444FF0000C10F884
:10013000013B13F0070408BF10F8014B1D1108BF65
:1001400010F8015B641E05D010F8016B641E01F805
:10015000016BF9D113F0080F1EBF10F8014BAD1C55
:100160000C1B09D16D1E58BF01F801CBFAD505E073
:1001700014F8016B01F8016B6D1EF9D59142D6D3CD
:10018000704700000023002400250026103A28BFF5
:1001900078C1FBD8520728BF30C148BF0B607047F9
:1001A000642905F02584002070471FB51FBD10B5D8
:1001B00010BD05F041FD1146FFF7F7FF00F00CF907
:1001C00005F05FFD03B4FFF7F2FF03BC02F042FB52
:1001D00030BF72B662B680F308887047704700BFC0
:1001E000FEE700BFFEE700BFFEE700BFFEE7704787
:1001F00070477047704700000CB5002001900090D8
:100200006C48006840F480306A49086000BF694863
:10021000006800F4003000900198401C01900098A4
:1002200018B90198B0F5A06FF1D16248006800F4E8
:10023000003010B10120009001E0002000900098F3
:10024000012843D15C48006840F010005A4908601A
:100250000846006820F0030008600846006840F087
:1002600002000860534840685249486008464068A8
:1002700048600846406840F480604860084640682E
:1002800020F47C1048600846406840F4E81048605C
:100290000846006840F08070086000BF454800686C
:1002A00000F000700028F9D04248406820F00300B8
:1002B000404948600846406840F00200486000BF7E
:1002C0003C48406800F00C000828F9D10CBD10B57E
:1002D000FFF792FF10BD10B53648006840F00100EE
:1002E000344908600846406834490840314948604C
:1002F00008460068324908402E49086008460068F0
:1003000020F4802008600846406820F4FE00486021
:100310004FF41F008860FFF7DAFF4FF000602949B3
:10032000086010BD10B5002100200022214B5B6841
:1003300003F00C0121B1042906D0082928D107E0D7
:10034000214B224C236027E01F4B204C236023E0ED
:10035000184B5B6803F47010164B5B6803F4803233
:10036000022303EB904022B9194B4343174C2360FF
:100370000DE0104B5B6803F4003323B1144B43438F
:10038000124C236003E0104B4343104C236003E006
:100390000D4B0E4C236000BF00BF064B5B68C3F3E0
:1003A00003130C4CE15C094B1B68CB40074C2360EA
:1003B00010BD000000100240002002400000FFF8C5
:1003C000FFFFF6FE08ED00E000127A0000000020BA
:1003D00000093D0004000020022002F0E3F802F0D2
:1003E00071F8022002F0C8F9012002F0C5F902F00C
:1003F00095FA02F0C3FA002141F61F4002F0BCFF5B
:100400004FF4E13002F043FA4FF4165003F0DAFBF8
:1004100003F068F803F0B0F802F055FE03F03EF97F
:1004200002F043FD03F028FD00BF02F04AFB002864
:10043000FBD14FF4967002F082F81548007810B1A5
:1004400002F0AAFE04E01348007808B102F00AFFA7
:1004500004F08DF8472142F20F7002F0DFFF16E042
:100460000D48007830B903F02BFF04F0EDFF04F0E5
:100470007AFE01E005F0E3F8012008490870002049
:100480000749087000BF054800780028FBD1E7E75E
:1004900017000020160000201D0000205900002039
:1004A000580000200948804709480047FEE7FEE75A
:1004B000FEE7FEE7FEE7FEE7FEE7FEE7FEE7FEE714
:1004C00004480549054A064B70470000D70200085A
:1004D000ED000008400B002040110020400D0020DE
:1004E000400D002031490143314A1160704770B519
:1004F000002100230F22C47804B32D4C246804F497
:10050000E064C4F5E064210AC1F10403CA40447800
:1005100004FA03F18478144021430901254C06783C
:10052000A155047804F01F050124AC4005786D1135
:10053000AD0005F1E025C5F8004109E0047804F0BC
:100540001F050124AC401C4D0678761145F8264065
:1005500070BD1A4A0A400243154B1B1F1A607047B0
:1005600039B1134A121D12680243114B1B1D1A6048
:1005700006E00F4A121D126882430D4B1B1D1A60C4
:100580007047042808D14FF0E021096941F00401C7
:100590004FF0E022116107E04FF0E021096921F0FE
:1005A00004014FF0E0221161704700000000FA05DD
:1005B0000CED00E000E400E080E100E080FFFF1FC0
:1005C00010B50446FA48844208D10121401500F0D4
:1005D0001DFE0021601500F019FE17E0F548844269
:1005E00008D10121001500F011FE0021201500F0B6
:1005F0000DFE0BE0F048844208D10121C80300F051
:1006000005FE00214FF4004000F000FE10BD30B5A3
:100610000246002000235068E84C20400D790C6809
:1006200044EA0524204350609068E54C2040D1E91D
:1006300002542C434D7944EA450420439060D06A2B
:1006400020F470000C7C641EE4B2234340EA0350A3
:10065000D06230BD00210160017141718160C160D3
:1006600001210174704721B1826842F00102826069
:1006700003E0826822F001028260704721B1826843
:1006800042F48072826003E0826822F480728260A9
:10069000704710B50023CBB21AB144681C434460C4
:1006A00002E044689C43446010BD816841F0080149
:1006B00081607047014600208A6802F008020AB192
:1006C000012000E000207047816841F00401816052
:1006D0007047014600208A6802F004020AB1012036
:1006E00000E00020704721B1826842F4A0028260DD
:1006F00003E0826822F4A002826070470146002075
:100700008A6802F480020AB1012000E000207047EC
:1007100010B50A4600210023416821F46041531EB0
:1007200041EA4331416010BD21B1426842F40062A8
:10073000426003E0426822F4006242607047F0B514
:1007400004460D4600200021092D11DDE068A5F1C9
:100750000A0606EB4607072606FA07F18843A5F1C5
:100760000A0606EB460603FA06F10843E0600CE0D1
:10077000206905EB4507072606FA07F1884305EBD4
:10078000450603FA06F108432061072A0FDA606B79
:10079000561E06EB86071F2606FA07F18843561EEB
:1007A00006EB860605FA06F10843606322E00D2A8F
:1007B0000FDA206BD61F06EB86071F2606FA07F115
:1007C0008843D61F06EB860605FA06F10843206328
:1007D00010E0E06AA2F10D0606EB86071F2606FA76
:1007E00007F18843A2F10D0606EB860605FA06F12D
:1007F0000843E062F0BD21B1826842F48012826059
:1008000003E0826822F48012826070470146C86C5F
:1008100080B2704766484C300068704721B142682A
:1008200042F48062426003E0426822F480624260E7
:10083000704721B1426842F48052426003E042684E
:1008400022F48052426070470A460021816821F4F8
:10085000E04111438160704721B1826842F4004257
:10086000826003E0826822F400428260704721B116
:10087000826842F40212826003E0826822F402126B
:1008800082607047014600208A6802F400120AB1B3
:10089000012000E000207047F0B504461546002016
:1008A00000220026092911DDE068A1F10A0707EB03
:1008B000470C072707FA0CF29043A1F10A0707EB50
:1008C000470703FA07F21043E0600CE0206901EBF0
:1008D000410C072707FA0CF2904301EB410703FA9A
:1008E00007F210432061A06BC0F30156EF1C06F124
:1008F000010CA7EB0C0707EB870C1F2707FA0CF27C
:100900009043EF1C06F1010CA7EB0C0707EB8707E0
:1009100001FA07F21043A063F0BD10B50A460021AA
:100920000023816B21F44011531E41EA035181637E
:1009300010BD08B5002300930090009B0B4400936A
:10094000009B1A6008BD08B5024600200090009286
:1009500001F12800009B184400900098006880B2C4
:1009600008BD0A4600214168164B194011434160F9
:1009700070474162826270470A460021416821F057
:100980001F0111434160704740B1094908310968AE
:1009900041F40001064A0832116007E004490831B9
:1009A000096821F40001024A083211607047000012
:1009B0000024014000280140003C0140FFFEF0FF00
:1009C000FDF7F1FFFFFD3FFF0246002013680B40DB
:1009D0000BB1012000E000207047CA43026070475D
:1009E00070B502460020002300240B125568CEB2D9
:1009F00005EA060415681D4015B10CB1012000E0A0
:100A0000002070BD00220A12D3430360704700002B
:100A100010B5012000F014FC002000F011FC10BD06
:100A20002A49086070472949091F0860704727490B
:100A300084310860704701460020254A10884FF62F
:100A40007F4210400843224A108070470146002030
:100A50001F4A10884FF68072104008431C4A1080CD
:100A6000704708B500220092194A2C3A0092009A69
:100A700002440092009A116008BD08B501460020AA
:100A8000009013482C38009000980844009000987B
:100A9000008808BD0D489C300068C0B270470C4803
:100AA0000830008840F0010009490831088070478B
:100AB0000648A0300068C0B270470548083000887A
:100AC00040F00200024908310880704704860D4258
:100AD0002C6C004010B50446CC48844208D101215A
:100AE000042000F093FB0021042000F08FFB46E07F
:100AF000C748844208D10121082000F087FB00216B
:100B0000082000F083FB3AE0C248844208D101216A
:100B1000102000F07BFB0021102000F077FB2EE07E
:100B2000BD48844208D10121202000F06FFB002144
:100B3000202000F06BFB22E0B848844208D101215C
:100B4000402000F063FB0021402000F05FFB16E036
:100B5000B348844208D10121802000F057FB0021D6
:100B6000802000F053FB0AE0AE48844207D1012107
:100B7000801500F04BFB0021A01500F047FB10BDD5
:100B800010B50121084600F041FB0021012000F0D2
:100B90003DFB10BD2DE9F041024600250026002056
:100BA00000230024002791F803C00CF00F0591F8F2
:100BB00003C00CF0100CBCF1000F03D091F802C080
:100BC0004CEA050591F800C0BCF1000F31D0146863
:100BD00000202BE04FF0010C0CFA00F3B1F800C03C
:100BE0000CEA03069E4220D183004FF00F0C0CFA52
:100BF00003F7BC4305FA03FC4CEA040491F803C074
:100C0000BCF1280F06D14FF0010C0CFA00FCC2F821
:100C100014C00AE091F803C0BCF1480F05D14FF0B1
:100C2000010C0CFA00FCC2F810C0401C0828D1D3FB
:100C30001460B1F800C0BCF1FF0F34DD546800202F
:100C40002EE000F1080C4FF0010808FA0CF3B1F89F
:100C500000C00CEA03069E4221D183004FF00F0C26
:100C60000CFA03F7BC4305FA03FC4CEA040491F8C0
:100C700003C0BCF1280F05D100F1080C08FA0CF8EC
:100C8000C2F8148091F803C0BCF1480F07D100F1FD
:100C9000080C4FF0010808FA0CF8C2F81080401C4C
:100CA0000828CED35460BDE8F0814FF6FF71018073
:100CB000022181700421C1707047024600209368B0
:100CC0000B400BB1012000E000207047014688680E
:100CD00080B2704702460020D3680B400BB1012060
:100CE00000E0002070470146C86880B2704701618B
:100CF0007047416170470AB1016100E0416170478E
:100D0000C16070474FF480320A4382618161826121
:100D100082698269704702460020434B18684FF68B
:100D20008073184040EA021008433F4B1860704738
:100D30003E49C8617047F0B50A46002300240021EF
:100D4000002500F00046B6F1004F02D1364EF169A1
:100D500001E0354E7168C0F3034583B200F44016DC
:100D6000B6F5401F08D121F070612F4E766826F04D
:100D700070662D4F7E6012E000F48016B6F5801F7D
:100D800006D1032606FA05F4A14341F0706106E09E
:100D9000460D360103FA06F6B14341F0706122B107
:100DA000460D360103FA06F6314300F00046B6F16F
:100DB000004F02D11C4EF16101E01B4E7160F0BD8D
:100DC00030B500228B071C0F0F2303FA04F2164BD9
:100DD00008338C1053F824309343134C08348D108F
:100DE00044F8253023468C1053F824308C07240F08
:100DF00000FA04F423430C4C08348D1044F82530D9
:100E000030BD0A49DC31086070470000000801402D
:100E1000000C014000100140001401400018014086
:100E2000001C014000200140000001400000204261
:100E300010B50121080700F0F6F900214FF08050AD
:100E400000F0F1F910BD2A4908627047284908618D
:100E5000704701460020274A106820F0E000084350
:100E6000106070472249A0310860704710B50246F3
:100E70000020204B186820F00300104318601E4B20
:100E80001B6843F004031C4C2360012901D130BFCF
:100E900000E020BF184B1B6823F00403164C2360AE
:100EA00010BD1448006840F004001249086008466C
:100EB000006840F0020008600F48006840F004003D
:100EC0000D49086000BF00BF30BF704701460020D9
:100ED000084A52680A400AB1012000E00020704729
:100EE0000449096841EA8001024A11607047000024
:100EF00000000E420070004010ED00E0DF48006886
:100F000040F00100DD49086008464068DC490840BF
:100F1000DA49486008460068DA490840D74908605D
:100F20000846006820F4802008600846406820F4E5
:100F3000FE0048604FF41F0088607047CF49096881
:100F400021F48031CD4A11601146096821F48021D5
:100F50001160B0F5803F03D0B0F5802F0ED106E0D0
:100F6000C649096841F48031C44A116007E0C349A9
:100F7000096841F4A021C14A116000E000BF00BF30
:100F8000704710B501460022002300204A11012AB3
:100F900002D1BA4C236806E0022A02D1B74C236A78
:100FA00001E0B64C636A01F01F02012494401C402A
:100FB0000CB1012000E0002010BD38B500200090E9
:100FC0000024002500BF3120FFF7DBFF0546009815
:100FD000401C00900098B0F5A06F01D0002DF2D019
:100FE0003120FFF7CEFF08B1012400E000242046A5
:100FF00038BD01460020A14A106820F0F80040EA00
:10100000C10010607047A049086070470246002088
:101010009A4B586820F47C1042EA01031843974B1E
:101020005860704798490866704701460020934A07
:10103000506820F003000843506070478F484068B4
:1010400000F00C007047014600208C4A506820F0E8
:10105000F00008435060704701460020874A5068FE
:1010600020F4E06008435060704701460020834A46
:10107000506820F4605040EAC1005060704729B1C8
:101080007E4A527A02437D4B5A7204E07B4A527A7E
:1010900082437A4B5A7270477B49D8310860704757
:1010A00001460020754A506820F4404008435060D3
:1010B00070470021714A20321170704A82F8201066
:1010C000012802D004280AD104E001216B4A203211
:1010D000117005E00521694A2032117000E000BF5F
:1010E00000BF70476949086070476449096A014355
:1010F000624A11627047654944390860704730B5EB
:1011000000210022002400235C4D6D6805F00C01D5
:1011100021B1042905D0082923D105E05C4D0560E3
:1011200022E05B4D05601FE0544D6D6805F47012C0
:10113000524D6D6805F48034022505EB92421CB9CE
:10114000544D554305600BE04C4D6D6805F400357A
:101150001DB1504D5543056002E04D4D55430560AE
:1011600002E04B4D056000BF00BF444D6D6805F0C7
:10117000F0010909484D6B5C0568DD4045603F4D55
:101180006D6805F4E061090A434D6B5C4568DD401C
:1011900085603A4D6D6805F46051C90A3E4D6B5C3F
:1011A0004568DD40C560354D6D6805F44041890BEB
:1011B0003A4D6B5CC568B5FBF3F5056130BD29B1EF
:1011C0002E4A526902432D4B5A6104E02B4A526960
:1011D00082432A4B5A61704729B1284A92690243D7
:1011E000264B9A6104E0254A92698243234B9A6117
:1011F000704729B1214AD2690243204BDA6104E0E9
:101200001E4AD26982431D4BDA61704729B11B4ADD
:10121000D2680243194BDA6004E0184AD26882436C
:10122000164BDA60704729B1144A12690243134B16
:101230001A6104E0114A12698243104B1A61704727
:1012400012494039086070470F49C86470470B491C
:10125000C87170470948406A40F080700749486289
:10126000704701460020054A92680A400AB10120F1
:1012700000E000207047014988727047001002406A
:101280000000FFF8FFFFF6FE0000424280044242E9
:1012900000127A0000093D0098000020A8000020FC
:1012A00010B50446FE48844208D10121C014FFF75E
:1012B000ADFF0021E014FFF7A9FFC4E0B4F1804FB7
:1012C00008D101210846FFF7AEFF00210120FFF7FA
:1012D000AAFFB8E0F348844208D101210220FFF7B9
:1012E000A2FF00210220FFF79EFFACE0EE488442FF
:1012F00008D101210420FFF796FF00210420FFF709
:1013000092FFA0E0E948844208D101210820FFF7BC
:101310008AFF00210820FFF786FF94E0E44884421A
:1013200008D101211020FFF77EFF00211020FFF7D8
:101330007AFF88E0DF48844208D101212020FFF7AE
:1013400072FF00212020FFF76EFF7CE0DA48844224
:1013500008D101214014FFF759FF00216014FFF765
:1013600055FF70E0D548844209D10121C804FFF738
:101370004DFF00214FF40020FFF748FF63E0D04805
:10138000844209D101210805FFF740FF00214FF4F5
:101390008010FFF73BFF56E0CA48844209D1012183
:1013A0004805FFF733FF00214FF40010FFF72EFF31
:1013B00049E0C548844208D101214020FFF733FFAE
:1013C00000214020FFF72FFF3DE0C048844208D1B4
:1013D00001218020FFF727FF00218020FFF723FF56
:1013E00031E0BB48844208D101218015FFF71BFF83
:1013F0000021A015FFF717FF25E0B648844209D168
:1014000001210804FFF702FF00214FF48030FFF7AD
:10141000FDFE18E0B048844209D101214804FFF7DD
:10142000F5FE00214FF40030FFF7F0FE0BE0AB4873
:10143000844208D101218804FFF7E8FE00214FF41F
:101440008020FFF7E3FE10BD00220288944B9842F3
:101450000ED0994B98420BD0B0F1804F08D0914BF1
:10146000984205D0904B984202D0904B984204D1BC
:101470004FF68F731A404B881A438D4B984207D012
:101480008C4B984204D04FF6FF431A40CB881A4346
:1014900002808B8883850B880385814B98420BD013
:1014A000854B984208D08B4B984205D08A4B984286
:1014B00002D08A4B984201D10B7A038601238382A2
:1014C000704770B5002400220023058C4FF6FE768D
:1014D00035400584028C8388048B4FF68F752C4031
:1014E000B51E2C400D882C43751E2A400D892A43B9
:1014F0004D882A436A4DA8420BD06F4DA84208D0B0
:10150000744DA84205D0744DA84202D0734DA84234
:1015100013D14FF6F7752A404D892A434FF6FB75D4
:101520002A408D882A434FF6FF652B404FF6FF5522
:101530002B408D892B43CD892B4383800483CD8819
:101540008586028470BD70B5002400220023058CBE
:101550004FF6EF7635400584028C8388048B48F67D
:10156000FF752C404FF6FF452C400D884FF6FF7657
:1015700006EA05252C434FF6DF752A400D8906EA59
:1015800005152A434D8806EA05152A43444DA8420D
:1015900002D0494DA8421DD14FF67F752A404D8992
:1015A0004FF6FF7606EA05152A434FF6BF752A4027
:1015B0008D8806EA05152A434FF6FF352B404FF27A
:1015C000FF752B408D8906EA85052B43CD8906EAF8
:1015D00085052B4383800483CD880587028470BDF5
:1015E00070B5002400220023058C4FF6FF663540BD
:1015F0000584028C8388848B4FF68F752C404FF6C0
:10160000FC752C400D882C434FF6FF552A400D8960
:101610004FF6FF7606EA05252A434D8806EA05259A
:101620002A431F4DA84202D0234DA8421DD14FF29C
:10163000FF752A404D894FF6FF7606EA05252A43B5
:101640004FF6FF352A408D8806EA05252A434EF6D7
:10165000FF752B404DF6FF752B408D8906EA051569
:101660002B43CD8906EA05152B4383808483CD88DF
:101670008587028470BD70B5002200230024058C8C
:101680004EF6FF7635400584038C8488828B48F6BD
:10169000FF752A404FF6FF452A400D8820E00000E4
:1016A000002C01400004004000080040000C0040F5
:1016B000001000400014004000340140004C014084
:1016C000005001400054014000180040001C004040
:1016D000002000400040014000440140004801401B
:1016E0004FF6FF7606EA05252A434DF6FF752B4097
:1016F0000D8906EA05352B434D8806EA05352B434F
:10170000FA4DA84202D0FA4DA84208D14BF6FF7517
:101710002C408D894FF6FF7606EA85152C43848090
:101720008283CD88A0F84050038470BD828B4FF235
:10173000FF331A408283828B4FF6FF7303EA012343
:101740001A4382837047F0B50C46154600220021EB
:101750000026078C4EF6FF7C07EA0C070784828B75
:10176000018C4FF6FF7707EA043640F6FF473A4010
:101770004FF6FF7707EA05273A434FF6FF7707EA68
:1017800003373A43D94FB8420ED0D94FB8420BD0A5
:10179000B0F1804F08D0D74FB84205D0D64FB842ED
:1017A00002D0D64FB84206D14DF6FF77394046F405
:1017B0008057394305E047F6FF57394044F48057D6
:1017C000394382830184F0BD828B4FF6F3731A4054
:1017D0008283828B0A4382837047F0B50C4615469C
:1017E000002200210026078C4FF6FF6C07EA0C0749
:1017F0000784828B018C4FF6FF7707EA04264FF6A9
:101800000C773A404FF6FF7707EA03172F433A4326
:10181000B64FB8420ED0B64FB8420BD0B0F1804FA1
:1018200008D0B44FB84205D0B34FB84202D0B34F3E
:10183000B84206D14FF6FF57394046F48077394316
:1018400005E04FF2FF57394044F4807739438283F3
:101850000184F0BD028B4FF2FF331A400283028BEA
:101860004FF6FF7303EA01231A4302837047F0B572
:101870000C461546002200210026078C4FF6EF7C0F
:1018800007EA0C070784028B018C4FF6FF7707EA03
:10189000041640F6FF473A404FF6FF7707EA033752
:1018A0003A434FF6FF7707EA05273A438F4FB8428E
:1018B0000ED08F4FB8420BD0B0F1804F08D08D4F73
:1018C000B84205D08C4FB84202D08C4FB84206D1F6
:1018D0004FF6DF77394046F01007394305E04FF601
:1018E0005F77394044F01007394302830184F0BD2B
:1018F000028B4FF6F3731A400283028B0A43028372
:101900007047F0B50C46154600220021068C4FF6B4
:10191000FE773E400684028B018C4FF60C763240F7
:101920007E1C06EA03162E433243704EB0420ED0A0
:101930006F4EB0420BD0B0F1804F08D06D4EB04228
:1019400005D06D4EB04202D06C4EB04206D14FF67B
:10195000FD76314044F00106314305E04FF6F5765F
:10196000314044F00106314302830184F0BD70B57B
:1019700005460C465D4885420ED05D4885420BD039
:10198000B5F1804F08D05B48854205D05A48854262
:1019900002D05A48854200D100E000BF208850B9EB
:1019A0002389A28861882846FFF7ABFFE188284693
:1019B000FFF79EFF25E0208804280AD12389A2880A
:1019C00061882846FFF753FFE1882846FFF742FF6A
:1019D00017E0208808280AD12389A2886188284630
:1019E000FFF7FBFEE1882846FFF7EEFE09E02389BA
:1019F000A28861882846FFF7A6FEE1882846FFF7FF
:101A000095FE70BD2DE9F04105460C4600260127E4
:101A1000608808B9022600E00026A088012801D1CC
:101A2000022700E001272088A0B92389A2886188C5
:101A30002846FFF766FFE1882846FFF759FF23890C
:101A40003A4631462846FFF712FFE1882846FFF75D
:101A500001FF13E02389A28861882846FFF707FF6A
:101A6000E1882846FFF7F6FE23893A4631462846A4
:101A7000FFF747FFE1882846FFF73AFFBDE8F0810E
:101A80000A884B881A438B881A43CB881A430B89E0
:101A90001A434B891A438B891A43A0F84420704794
:101AA0004FF6FF71818000210180C1804180017269
:101AB00070470021018041808180C1800181418186
:101AC0008181C18170470021018041800121818095
:101AD0000021C18001817047002101804180818007
:101AE000C18001814181818170470000002C01404B
:101AF000003401400004004000080040000C004099
:101B000021B1028842F00102028004E002884FF60F
:101B1000FE731A400280704731B1B0F8442042F49D
:101B20000042A0F8442005E0B0F84420C2F30E02C1
:101B3000A0F8442070471AB183890B43838102E0E7
:101B400083898B43838170478182704741EA020316
:101B5000A0F8483070471AB183890B43838102E0B3
:101B600083898B438381704701894FF6F872114056
:101B7000018170470A46002101894FF68F73194091
:101B800011430181704730B504460D462946204671
:101B9000FFF7F0FF208940F00700208130BD2DE9DC
:101BA000F04104460D4616461F46602D06D13B46C1
:101BB000012231462046FFF75AFE05E03B4601224E
:101BC00031462046FFF79DFE29462046FFF7D2FF0B
:101BD000208940F007002081BDE8F08130B50C4637
:101BE00000210189C9B24FF6FF7505EA03251543A7
:101BF00025432943018130BD2DE9F04105460E46BC
:101C000017469846002443463A4631462846FFF791
:101C1000E5FF2C894FF6F870044044F007044FF6B6
:101C20008F70044044F070042C81BDE8F081F0B561
:101C300004460D4616461F463B4632462946204678
:101C4000FFF7CCFF208940F480402081F0BD018562
:101C5000828270470A46002101884FF68F7319402F
:101C6000114301807047F0B50C4615461E46002111
:101C7000002200230189028B038C4FF6F87739404C
:101C800021434FF6FC473A4040F201173A434FF6E2
:101C9000DD773B404FF6FF7707EA06172F433B43BC
:101CA000018102830384F0BD0A460021018B4FF6B7
:101CB0008F7319401143018370470A460021018B3D
:101CC00048F6FF7319404FF6FF7303EA02231943E6
:101CD000018370470A460021818B4FF68F731940AC
:101CE0001143818370470A460021818B48F6FF73B8
:101CF00019404FF6FF7303EA0223194381837047AB
:101D000021B1028842F08002028004E002884FF68E
:101D10007F731A400280704721B1828842F004022A
:101D2000828004E082884FF6FB731A4082807047FD
:101D300021B1828842F00802828004E082884FF656
:101D4000F7731A408280704721B1828842F0010205
:101D5000828004E082884FF6FE731A4082807047CA
:101D60000A460021018B4FF6F77319401143018396
:101D700070470A460021018B4FF2FF7319404FF65E
:101D8000FF7303EA02231943018370470A460021C7
:101D9000818B4FF6F77319401143818370470A46D0
:101DA0000021818B4FF2FF7319404FF6FF7303EA56
:101DB00002231943818370470A460021018B4FF6A5
:101DC000FB7319401143018370470A460021018BC0
:101DD0004FF6FF3319404FF6FF7303EA022319430E
:101DE000018370470A460021818B4FF6FB7319402F
:101DF0001143818370470A460021818B4FF6FF33E0
:101E000019404FF6FF7303EA022319438183704799
:101E10000A460021018B4FF67F731940114301835D
:101E200070470A460021018BC1F30E014FF6FF7384
:101E300003EA02231943018370470A460021818B7C
:101E40004FF67F7319401143818370470A46002182
:101E5000818BC1F30E014FF6FF7303EA022319438E
:101E6000818370470A460021018C4FF6FD731940AB
:101E70001143018470470A460021018C4FF6F77325
:101E800019401143018470470A460021018C4FF626
:101E9000DF7319404FF6FF7303EA021319430184FD
:101EA00070470A460021018C4FF67F7319404FF6A8
:101EB000FF7303EA02131943018470470A460021A5
:101EC000018C4FF6FF5319404FF6FF7303EA0223CC
:101ED0001943018470470A460021018C4FF2FF73B9
:101EE00019404FF6FF7303EA022319430184704738
:101EF0000A460021018C4DF6FF7319404FF6FF731F
:101F000003EA023319430184704730B500230124EA
:101F10008C40A3B2048C9C430484048C02FA01F527
:101F2000ADB22C43048430BD30B5002304248C4072
:101F3000A3B2048C9C430484048C02FA01F5ADB274
:101F40002C43048430BD70B503460020002418469D
:101F5000183001258D40ACB21D8CA5431D8409B1FC
:101F6000082909D100EB6100056825F070050560BE
:101F70000568154305600EE00D1FC5F34E052844A6
:101F8000056825F4E045056005684FF6FF7606EA2A
:101F900002263543056070BD21B1028842F002027D
:101FA000028004E002884FF6FD731A4002807047F9
:101FB00021B1028842F00402028004E002884FF658
:101FC000FB731A400280704721B1828842F0800280
:101FD000828004E082884FF67F731A4082807047C7
:101FE00002884FF6F7731A40028002880A43028083
:101FF000704782884FF68F731A40828082880A4326
:102000008280704702894FF6F8731A400281028974
:102010000A430281704702894FF67F731A4002819A
:1020200002890A4302817047818470478185704725
:10203000818670470187704781877047A0F84010FC
:10204000704702884FF6FF431A40028002880A4315
:10205000028070470146888E70470146088F70479E
:102060000146888F70470146B1F84000704701462D
:10207000888C70470146088D704702460020138AFD
:102080000B400BB1012000E000207047CA430282E0
:10209000704730B50246002000230024158A05EA67
:1020A0000103958905EA010413B10CB1012000E098
:1020B000002030BDCA4302827047000010B50446BC
:1020C000FB48844209D101218803FFF79FF80021D2
:1020D0004FF48040FFF79AF832E0F648844209D185
:1020E00001214804FFF79FF800214FF40030FFF76B
:1020F0009AF825E0F048844209D101218804FFF7CD
:1021000092F800214FF48020FFF78DF818E0EB489B
:10211000844209D10121C804FFF785F800214FF45A
:102120000020FFF780F80BE0E548844208D1012148
:102130000805FFF778F800214FF48010FFF773F8D7
:1021400010BD2DE9F04786B005460E460024A24694
:1021500000BFA1460027B08900B100BF2F462C8ADE
:102160004CF6FF700440F08804432C82AC894EF694
:10217000F3100440B088318908437189084304434F
:10218000AC81AC8A4FF6FF400440B0890443AC8276
:1021900001A8FEF7B4FFC648874202D1DDF810A0BF
:1021A00001E0DDF80CA0A88900F4004040B10AEB82
:1021B000CA0000EB0A1031684900B0FBF1F807E0F3
:1021C0000AEBCA0000EB0A1031688900B0FBF1F895
:1021D0006420B8FBF0F004012009642101FB1089A0
:1021E000A88900F4004040B1322000EBC900B0FBE8
:1021F000F1F000F00700044308E0322000EB091082
:102200006421B0FBF1F000F00F0004432C8106B014
:10221000BDE8F0874FF41651016000218180C18034
:1022200001810C21418100218181704710B5024656
:102230000020108A4FF2FF0318400B884C8823437C
:102240008C882343CC8823431843108210BD00217F
:10225000018041808180C180704721B1828942F430
:102260000052828104E082894DF6FF731A40828118
:102270007047F0B50346002400260025002040F6F4
:102280006A17B94200D100BF1846C1F3421401F0E9
:102290001F06012707FA06F5012C01D10C3004E0D6
:1022A000022C01D1103000E014301AB107682F431E
:1022B000076002E00768AF430760F0BD1AB1838A88
:1022C0000B43838202E0838A8B4383827047028AB6
:1022D0004FF6F0731A400282028A0A430282704764
:1022E00082894FF2FF731A40828182890A43828178
:1022F000704721B1828942F00202828104E0828922
:102300004FF6FD731A4082817047028A4FF6DF73E1
:102310001A400282028A0A430282704721B1028A6D
:1023200042F48042028204E0028A4BF6FF731A40B4
:1023300002827047C1F30802828070470146888894
:10234000C0F308007047818941F001018181704725
:10235000028BD2B20283028B42EA012202837047CF
:10236000028B02F47F420283028B0A43028370478E
:1023700021B1828A42F02002828204E0828A4FF6F2
:10238000DF731A408282704721B1828A42F01002C4
:10239000828204E0828A4FF6EF731A40828270478D
:1023A00021B1828A42F00802828204E0828A4FF6DA
:1023B000F7731A408282704721B1828942F4004249
:1023C000828103E08289C2F30E028281704721B1CB
:1023D000828A42F40062828204E0828A4FF2FF73B2
:1023E0001A4082827047828A4FF6FB731A408282BB
:1023F000828A0A438282704721B1828A42F00202B5
:10240000828204E0828A4FF6FD731A40828270470E
:1024100002460020B1F5007F00D100BF13880B40B9
:102420000BB1012000E00020704701F40072B2F50A
:10243000007F00D100BFCA430280704770B50246DA
:10244000002400230025002040F66A16B14200D186
:1024500000BFC1F3421501F01F03012606FA03F382
:10246000012D02D19689334006E0022D02D1168A51
:10247000334001E0968A33400C12012606FA04F438
:102480001688344013B10CB1012000E0002070BD6B
:1024900010B50022002340F66A14A14200D100BF0B
:1024A0000A1201249440A3B2DC43048010BD000052
:1024B000003801400044004000480040004C00400B
:1024C0000050004010B56FF00400FEF75AF82E4897
:1024D00000682E49B0FBF1F02D49087008460078DD
:1024E00000EB4001C1EBC0104FF6FF7101EAC000E4
:1024F0002849088010BD0146254A12784A434FF00A
:10250000E0235A6100229A611A46126942F00102E0
:102510001A6100BF4FF0E022106900F001021AB109
:1025200000F48032002AF5D04FF0E022126922F048
:1025300001024FF0E0231A6100229A6170470146C0
:10254000144A12884A434FF0E0235A6100229A61EC
:102550001A46126942F001021A6100BF4FF0E022F0
:10256000106900F001021AB100F48032002AF5D09F
:102570004FF0E022126922F001024FF0E0231A61CD
:1025800000229A61704700000000002000127A00CB
:10259000AC000020AE000020A34A0A400243A34B37
:1025A0001A6070470146072323EA010212029F4B7B
:1025B0001B1D18684FF6FF0318409D4B184310432E
:1025C0009A4B1B1D186070472DE9F041074688465D
:1025D00014461D462846FFF7E5FFC5F1040007FA3B
:1025E00000F60F20284100EA0800064306F00F0617
:1025F000E21704EBD2625211920002F1E022D2F80B
:1026000000212146E31704EBD3635B11A4EB431CC9
:10261000012303FA0CF31A432046E31704EBD363B8
:102620005B119B0003F1E023C3F800218148005DAA
:1026300040EA06107F490855BDE8F08170B50446B0
:102640000B46CE1701EB9676C6F38700CE1701EB4B
:102650009676B610A1EB8606B606350E764B9B69CC
:1026600043F00103744EB3614FEAB63353F82030A0
:102670000F26AE40B343714E46F82030334653F830
:10268000203004FA05F61E436C4B43F820606C4B77
:102690001B6801268E403343694E336002F001030C
:1026A00043B1674B0C331B6801268E403343644EA5
:1026B0000C36336002F0020343B1614B08331E68ED
:1026C00001238B401E435E4B08331E6070BD00B576
:1026D000002059490861C8601420486100208861C1
:1026E000C8610846006840F001000860084640687C
:1026F000544908405049486008460068524908401B
:102700004D4908600846006820F4802008600846AB
:10271000406820F4FE0048600020886000214FF0EF
:102720000060FFF739FF00BD10B540480830006871
:1027300040F004003D49083108603F48C06940F05E
:1027400080503D49C8614148406840F480703F492D
:1027500048600846006840F00400086008460068C9
:1027600040F002000860FDF733FD10BD3048001D49
:102770002E49091D08607047014649062E4A926994
:1027800042F001022C4B9A612C4A083A526822F01E
:10279000E0622A4B083B5A601A4652680A435A6064
:1027A000704730B504460025FFF791FF22480068C6
:1027B00040F480302049086000BF1F480068400C8A
:1027C0000028FAD04FF480601B494860A01EC4B2B4
:1027D0000846406840EA844048600846406840F443
:1027E000803048601A48006840F03200184908609C
:1027F0001148006840F080700F49086000BF0E4823
:102800000068400E0028FAD00B48406840F00200F3
:102810000949486005E008484068C0F3870505F0AD
:102820000305022DF7D130BD80FFFF1F08ED00E04A
:102830000000FA0500E400E000100240080001403A
:10284000000401400000FFF8FFFFF6FE00700040AA
:102850000020024000BF70472C4A12785AB900BFCE
:102860002B4A128802F04002002AF9D0C2B2284B4B
:102870001B1D1A800AE000BF264A128802F040029F
:10288000002AF9D0C2B2234B1B1D1A80704710B525
:1028900086B00446012144F20400FEF79DFC4FF48B
:1028A0000070ADF8140003208DF8160018208DF884
:1028B000170005A91848FEF76DF94FF48060ADF8D0
:1028C000140004208DF8170005A91348FEF762F9DB
:1028D00001940020ADF80800ADF80A00ADF80C0036
:1028E000ADF810000C20ADF80E0001A90948FFF763
:1028F00028FC002240F225510648FFF7BAFC0121CE
:102900000448FFF7AAFC06B010BD00001D0000201F
:1029100000480040003801400008014008B501218E
:102920000420FEF759FC1020ADF800008DF80300DC
:1029300003208DF8020069460C48FEF72BF908BD0C
:1029400018B900210A4A11600FE00A490968491CB8
:10295000084A1160814208D105490968C943064AFD
:10296000C2F890110021034A11607047000801402D
:1029700090012142B40000200000214208B501214D
:102980000420FEF729FC2020ADF8000048208DF837
:10299000030069467B48FEF7FDF808BD01467A480A
:1029A000006828B979480088401C784A108002E005
:1029B0000020764A10807448006828B9744800786E
:1029C00010B90120724A107072480078B0B970488E
:1029D0000078012807D170480078401C6E4A1070BA
:1029E00001206C4A10706C480078022806D1002043
:1029F000694A1070694A1080022070476248006876
:102A0000012804D10020624A1070624A10706248A6
:102A1000007801281CD161480088401C5F4A108062
:102A20001046008888420ADD58480088884206DA45
:102A30000020594A1070594A10800120DDE75348A0
:102A40000088884204DD0020534A1070534A1080E9
:102A50000020D2E75248007838B14B48006820B9CE
:102A600000204F490870012070474748006801283E
:102A700001D14B4908700020F6E74A48008840B968
:102A80004148006828B948480088401C46490880E9
:102A900002E000204449088043480088C82807DD38
:102AA00001204049088000203F49088001207047EC
:102AB0003C480088012802D100203A4908800020C3
:102AC000F5E710B502F0F9FD3220FFF767FF044685
:102AD000012C4CD135480078401C34490870084618
:102AE000007848B901203249087000203149087047
:102AF00031490870314908702C480078012809D103
:102B000000202B4908702B4908702B4908700120C0
:102B10002A49087025480078022809D10120254952
:102B20000870002022490870234908702349087062
:102B30001E480078032809D101201F490870002091
:102B40001B4908701B4908701C4908701748007819
:102B500004280CD100201549087001201449087080
:102B60000020144908701449087014490870022C98
:102B700004D100F08DF80020114908701048007849
:102B800010BD00000008014014012142BE000020D9
:102B9000B8000020B9000020BA000020BC000020CE
:102BA000C0000020C4000020C2000020140000204B
:102BB000150000201700002016000020180000203B
:102BC000C600002010B50A461AB10123FE4C23604E
:102BD00002E00023FC4C2360002114E00023FB4CA6
:102BE000236000F080031BB10123241F236003E056
:102BF0000023F64C241F23600123F44C236043067A
:102C0000180E4B1CD9B20829E8DB0123EE4C2360D7
:102C100010BD30B500241CE004F1B001C8B20021A1
:102C2000FFF7D0FF00210846FFF7CCFF002110205E
:102C3000FFF7C8FF002508E0E54901EBC501085D85
:102C40000121FFF7BFFF681CC5B2802DF4DB601CBB
:102C5000C4B2082CE0DB30BD00B500218D20FFF7A9
:102C6000B1FF00211420FFF7ADFF0021AF20FFF7D7
:102C7000A9FF00BD00B500218D20FFF7A3FF0021B3
:102C80001020FFF79FFF0021AE20FFF79BFF00BD44
:102C900030B500240CE0002506E00020CC4901EB13
:102CA000C5010855681CC5B2802DF6DB601CC4B296
:102CB000082CF0DBFFF7ADFF30BDF0B51446002661
:102CC0007F2801DC3F2900DDF0BD0B46CF1701EB6B
:102CD0005777FF10C7F10707FAB2CF1701EB577705
:102CE000FF10A1EBC707FDB2C5F107070123BB40E9
:102CF000DEB24CB1B64B03EBC0039B5C3343B44F25
:102D000007EBC007BB5408E0B14B03EBC0039B5C6F
:102D1000B343AF4F07EBC007BB5400BFD4E72DE967
:102D2000F04F80460C4615461E46A346A5F12000EE
:102D3000C5B200273EE00C2E07D105EB4500A549A2
:102D400001EB800010F8079004E0A34800EB0510A9
:102D500010F807904FF0000A26E009F0800028B133
:102D600021464046099AFFF7A8FF09E0099808B9EB
:102D7000012000E00020024621464046FFF79DFF6B
:102D80004FEA49604FEA1069601CC4B2A4EB0B0023
:102D9000B04205D15C4608F1010000F0FF0806E0F2
:102DA0000AF1010000F0FF0ABAF1080FD5DB00BFFD
:102DB000781CC7B2B742BEDBBDE8F08F10B5024643
:102DC000012000E050430B1EA1F10104E1B2F9D152
:102DD00010BD2DE9FF4F81B0074691461E460E9D5E
:102DE0004FF0000A002439E0301B401EC1B20A2017
:102DF000FFF7E4FFB9FBF0F00A21B0FBF1F201FBB1
:102E00001208BAF1000F16D1701EA04213DDB8F1FE
:102E1000000F0ED10120AB4605EBDB71491001FB21
:102E200004710090C8B22B4620220299FFF777FF69
:102E300012E04FF0010A0120AB4605EBDB714910AF
:102E400001FB04710090C8B208F13001CAB22B46F0
:102E50000299FFF764FF00BF601CC4B2B442C3DB39
:102E600005B0BDE8F08F78B505460E46144618E06B
:102E70007A2D03DD002506F11000C6B23A2E04DDDE
:102E8000002005460646FFF703FF01200090227848
:102E90000C2331462846FFF742FF05F10800C5B272
:102EA000641C20780028E3D178BD08B501210820F2
:102EB000FEF792F93820ADF8000010208DF80300DD
:102EC00002208DF8020069464448FDF763FE0121A7
:102ED0000420FEF781F94FF40040ADF80000022015
:102EE0008DF8020010208DF8030069463C48FDF77C
:102EF00051FE0120FDF7A7FF0020FEF7DAF80020C1
:102F0000FDF791FD0020FDF79EFF00202F490839B5
:102F100008606420FFF713FB01203249C1F88C01DF
:102F20000021AE20FFF74EFE0021D520FFF74AFE1C
:102F300000215020FFF746FE0021A820FFF742FEA7
:102F400000213F20FFF73EFE0021D320FFF73AFE8D
:102F500000210846FFF736FE00214020FFF732FE31
:102F600000218D20FFF72EFE00211420FFF72AFEFE
:102F700000212020FFF726FE00210220FFF722FE7D
:102F80000021A120FFF71EFE0021C020FFF71AFE3E
:102F90000021DA20FFF716FE00211220FFF712FEB3
:102FA00000218120FFF70EFE0021EF20FFF70AFE2F
:102FB0000021D920FFF706FE0021F120FFF702FED5
:102FC0000021DB2010E00000BC012142948121425D
:102FD000740200206A7B0008DE7F0008000C0140BC
:102FE0000008014000802142FFF7ECFD0021302065
:102FF000FFF7E8FD0021A420FFF7E4FD0021A62053
:10300000FFF7E0FD0021AF20FFF7DCFDFFF740FEFA
:1030100008BD0000002000E0401C0A28FCDB7047CF
:1030200010B50446072301222146BC48FDF787FB63
:103030000121BA48FDF757FB00BF0221B748FDF751
:10304000C3FC0028F9D0B548FDF7E0FB10BD70B512
:10305000002400250020B2490860B249C1F884016B
:10306000FFF7D8FF0120B0490860FFF7D3FF002029
:10307000AE49C1F88401FFF7CDFF0120A8490860DF
:10308000FFF7C8FF0020A749C1F88401FFF7C2FF7E
:1030900000BF15E00020A2490860FFF7BBFF022037
:1030A000FFF7BEFF0011A24921F81500681CC5B248
:1030B00001209E49C1F88401FFF7ACFF601CC4B237
:1030C000802CE7DB70BD00B587B001214FF40270A2
:1030D000FEF782F84FF40040FDF7E2FF0120ADF863
:1030E000040000208DF8070001A99248FDF752FD69
:1030F0008A48FDF765FA002002908DF80C008DF8E3
:103100000D004FF4602004900020059001208DF800
:10311000180002A98148FDF77AFA01217F48FDF7DE
:10312000A2FA7E48FDF7C1FA00BF7C48FDF7C2FA5B
:103130000028FAD17948FDF7C7FA00BF7748FDF7B4
:10314000C8FA0028FAD107B000BD2DE9F04F85B0CC
:103150000820FFF765FF019003F0C4FD4FF06632D1
:10316000754BCDE9020103F00DFE80460022734B42
:1031700003F008FE06460022714B03F003FE0446EE
:103180000022704B03F010FC824603F065FD0490B2
:10319000049805B0BDE8F08F00B587B001211D206F
:1031A000FEF71AF801214802FEF716F84FF4004026
:1031B000FDF776FF01216448FDF7BDFD0220ADF863
:1031C000040010208DF8070002208DF8060001A9E8
:1031D0005848FDF7DFFC0220ADF8040010208DF800
:1031E000070002208DF8060001A95848FDF7D2FC1F
:1031F0000420ADF8040000208DF8070001A9534811
:10320000FDF7C8FC4548FDF7DBF9002002908DF87A
:103210000C008DF80D004FF4602004900020059004
:1032200001208DF8180002A93C48FDF7F0F90121B2
:103230003A48FDF718FA3948FDF737FA00BF374822
:10324000FDF738FA0028FAD13448FDF73DFA00BFFF
:103250003248FDF73EFA0028FAD10120FFF76FF956
:1032600007B000BD00B587B001210C20FDF7B4FF09
:1032700001214802FDF7B0FF4FF40040FDF710FFB9
:103280000220ADF8040000208DF8070001A92948AC
:10329000FDF780FC0220ADF8040000208DF8070047
:1032A00001A92A48FDF776FC0420ADF804000020AF
:1032B0008DF8070001A92548FDF76CFC1748FDF7BC
:1032C0007FF9002002908DF80C008DF80D004FF46E
:1032D000602004900020059001208DF8180002A9BC
:1032E0000E48FDF794F901210C48FDF7BCF90B4895
:1032F000FDF7DBF900BF0948FDF7DCF90028FAD13A
:103300000648FDF7E1F900BF0448FDF7E2F900289F
:10331000FAD10120FFF713F907B000BD00240140E6
:103320008401214200802142848121420000214207
:103330004C010020000C014066660A400000264057
:10334000000059400000B040000230000008014079
:1033500008B501210820FDF73FFF4FF47040ADF89C
:10336000000010208DF8030003208DF8020069464C
:103370005948FDF70FFC08BD30B589B005460C462D
:10338000FFF7E6FF0121C802FDF726FF0121042017
:10339000FDF722FF4FF41060ADF8200018208DF8E3
:1033A000230003208DF8220008A94C48FDF7F2FB0A
:1033B000ADF81850ADF814400020ADF81A00ADF883
:1033C000160005A94648FEF73FF86020ADF8040056
:1033D0000120ADF806000020ADF80A00ADF80C00A1
:1033E00001A93F48FEF76DF801A93D48FEF743F9F2
:1033F00001213B48FEF790FB08213948FEF7B0FC5D
:1034000008213748FEF7CBFC01213548FEF778FC50
:1034100001213348FEF774FB09B030BD30B589B0E7
:1034200005460C4601210846FDF7E3FE0121042074
:10343000FDF7D2FE18208DF807000120ADF804003A
:103440008DF8060001A92548FDF7A4FBADF81C5036
:10345000ADF818400020ADF81A00ADF81E0006A91E
:103460004FF08040FDF7F0FF6020ADF8080001202C
:10347000ADF80A000020ADF80E00ADF8100002A96A
:103480004FF08040FEF71DF80821C806FEF768FCE3
:103490001C208DF8000001208DF8030002208DF81B
:1034A000010001208DF802006846FDF720F8012197
:1034B0008807FEF725FC012211469007FEF73BFB2B
:1034C00001218807FEF71CFB40F2DC504FF08041E1
:1034D000888609B030BD0000000C014000080140A2
:1034E000002C014000B587B001210220FDF781FECC
:1034F00001210420FDF770FEC020ADF8000004207B
:103500008DF8030069466148FDF744FB04A8FEF707
:10351000C7FA0020ADF810004FF6FF70ADF81400A8
:103520000020ADF81600ADF8120004A95848FDF7C8
:103530008BFF00231A4603215548FEF794FB01A890
:10354000FEF7C1FA0A20ADF80C0001A95048FEF7B9
:103550000EFA01214E48FEF799FD012211464C4812
:10356000FEF7E9FA00214A48FEF75EFD01214848CE
:10357000FEF7C6FA07B000BD00B587B001210420F0
:10358000FDF737FE01210820FDF726FEC020ADF82B
:10359000000004208DF8030069463E48FDF7FAFA62
:1035A00004A8FEF77DFA0020ADF810004FF6FF707A
:1035B000ADF814000020ADF81600ADF8120004A913
:1035C0003548FDF741FF00231A4603213248FEF734
:1035D0004AFB01A8FEF777FA0A20ADF80C0001A912
:1035E0002D48FEF7C4F901212B48FEF74FFD0122BB
:1035F00011462948FEF79FFA00212748FEF714FDDF
:1036000001212548FEF77CFA07B000BD01460229DA
:1036100004D003290BD004291BD111E04FF08042C4
:10362000928C10B200224FF080439A8413E0184A23
:103630002432128810B20022154B24331A800AE07B
:10364000154A2432128810B20022134B24331A80F8
:1036500001E0002000BF00BF70470F481030008815
:103660000D481030008820F001000B49103108800F
:10367000704707481030008805481030008820F057
:103680000100034910310880704700000008014024
:1036900000040040000C01400008004008B5012172
:1036A0000820FDF799FD4FF44070ADF800001020A0
:1036B0008DF8030003208DF802006946F748FDF7F6
:1036C00069FA08BD10B5F548001D006820F0F0004B
:1036D000F249091D08600846006840F030000860A3
:1036E0000120EF490860EF48D0F8240108B9002014
:1036F00010BD0120EA49091F0860FEF7FCFE00200A
:10370000E849C1F8A401E6488038006808B1002003
:10371000EEE70120FEF7EFFE0020E149091F0860F7
:103720000120E5E710B5DD48001D006820F0F0003D
:10373000DA49091D08600846006840F0300008605A
:103740000020D749091F0860D649C1F8A40101200B
:10375000FEF7D1FE0120D249091F0860D149C1F806
:10376000A401FEF7C8FE10BD10B50024CB48001D13
:10377000006820F0F000C949091D0860084600688B
:1037800040F0800008600120C5490860FEF7B3FEE4
:103790000120C449C1F8A001FEF7ADFE0AE0601C9B
:1037A000C4B2322C03DDFFF7BDFF002010BD0120A5
:1037B000FEF7A1FEBA48803800680028EFD1B8496A
:1037C000091F08600120F1E710B50020B449091F66
:1037D0000860B248001D006820F0F000AF49091DE4
:1037E00008600846006840F0300008600020AD49DD
:1037F000C1F8A4010120FEF77EFE0120A849091F9F
:103800000860FEF778FE0020A649C1F8A00110BDAF
:1038100010B50020A249091F0860A048001D0068DB
:1038200020F0F0009D49091D08600846006840F03E
:103830003000086001209B49C1F8A401FEF75BFE3F
:1038400001209749091F0860FEF755FE00209549A1
:10385000C1F8A00110BD70B504469048001D006875
:1038600020F0F0008D49091D08600846006840F00E
:103870003000086000208A49091F0860002516E012
:10388000E009874908606006040E0120FEF733FE58
:1038900001208449C1F8A001FEF72DFE00208049D7
:1038A000091F08600120FEF726FE681CC5B2082D1E
:1038B000E6DB70BD2DE9F04105460E4617469846F9
:1038C000FFF700FF10B90120BDE8F0816906080E7E
:1038D000FFF7C1FFFFF748FF18B9FFF723FF0120EB
:1038E000F2E73046FFF7B7FFFFF73EFF00240BE09B
:1038F00018F80400FFF7AFFFFFF736FF18B9FFF71E
:1039000011FF0020E0E7641CBC42F1DBFFF70AFF77
:103910000020D9E770B5054600246048001D006806
:1039200020F0F0005D49091D08600846006840F07D
:1039300080000860002617E000205949091F086030
:103940000220FEF7D8FD01205649C1F8A00160060B
:10395000040E53488038006808B1601CC4B20220CD
:10396000FEF7C9FD701CC6B2082EE5DB15B1FFF7E6
:103970002BFF01E0FFF74CFF204670BD2DE9F04121
:1039800006460F4614461D46FFF79CFE10B901205F
:10399000BDE8F0817106080EFFF75DFFFFF7E4FE5A
:1039A00018B9FFF7BFFE0120F2E73846FFF753FFD3
:1039B000FFF7DAFEFFF786FE012101EB4601C8B2F0
:1039C000FFF749FFFFF7D0FE0DE0012C04D10020E6
:1039D000FFF7A0FF287003E00120FFF79BFF28708E
:1039E0006D1C601EC4B2002CEFD1FFF79BFE0020BF
:1039F000CEE770B505460E460024FFF763FE284665
:103A0000FFF729FF641CFFF7AFFE3046FFF723FFE7
:103A1000641CFFF7A9FEFFF755FE691CC8B2FFF74B
:103A20001AFF641CFFF7A0FE0020FFF773FF044697
:103A3000FFF778FE204670BD2DE9F0410746884625
:103A400015461E460024FFF73DFE3846FFF703FFEC
:103A5000FFF78AFE4046FFF7FEFEFFF785FEFFF701
:103A600031FE791CC8B2FFF7F6FEFFF77DFE00BFFE
:103A70000DE0681EA04204D00120FFF74BFF305537
:103A800003E00020FFF746FF3055601CC4B2AC4293
:103A9000EFDBFFF747FE2046BDE8F081000C014058
:103AA000A4812142008021422DE9F04180460D464B
:103AB00016461F460024FFF705FE4046FFF7CBFEE3
:103AC000FFF752FE2846FFF7C6FEFFF74DFE00BF88
:103AD00006E0385DFFF7BFFEFFF746FE601CC4B28C
:103AE000B442F6DBFFF71EFE0120BDE8F08170B5A1
:103AF00005460E46144631462846FFF77AFF2070E9
:103B0000012070BD37B504460D4602AB012229469F
:103B10002046FFF7C9FF3EBD2DE9F843074688461A
:103B200014461D46089E6A4641463846FFF7DFFFA9
:103B300028B3601CFF2101FA00F0C4F108012944F8
:103B4000491EFF220A41104300F0FF09C5F1080099
:103B500006FA00F0C6B2C4F1070006419DF8000065
:103B600000EA090000909DF80000304300909DF8A5
:103B7000002041463846FFF7C5FFBDE8F883002026
:103B8000FBE7F8B506460F4614461D466A46394619
:103B90003046FFF7ACFF2DB10120A0409DF800108A
:103BA000084305E00120A0409DF8001021EA000034
:103BB000C0B200909DF8002039463046FFF7A2FFC2
:103BC000F8BD000010B586B0044601210820FDF7BD
:103BD00003FB01218804FDF70CFB4FF48060ADF876
:103BE000140003208DF8160018208DF8170005A981
:103BF0008F48FCF7CFFF4FF40060ADF814000420AD
:103C00008DF8170005A98A48FCF7C4FF27208DF816
:103C1000000000208DF8010001208DF802008DF8D1
:103C200003006846FCF763FC01940020ADF808002F
:103C3000ADF80A00ADF80C00ADF810000C20ADF89E
:103C40000E0001A97B48FEF77CFA012240F22551C3
:103C50007848FEF70EFB01217648FEF7FEFA06B023
:103C600010BD2DE9FF5F7348008800F02000002898
:103C700073D07048FEF762FB6F4908700846007801
:103C80006E4908706C480078412809D16C4800786A
:103C9000412805D16B48007810B9012069490870A6
:103CA00065480078452806D165480078452802D146
:103CB0006549086003E060480078634908605E4831
:103CC00000780A2804DA5C4800785F49086006E05A
:103CD000594800785A2802D100205B4908605648AC
:103CE000007857490870544800787B2802D1012099
:103CF00056490870504800787D2802D10220534967
:103D000008705248007801280AD14B480078504981
:103D1000504A127888544F480078401C4D4908702A
:103D20004A480078022818D14948C078502803D161
:103D30000120494908706CE04548C078572803D1F4
:103D400001204649087064E041484078232860D04B
:103D5000404800784249087035E067E03D490978FD
:103D60003F4A1278881A02F0A6FF804642460B4668
:103D700000203C4902F018F804460D4638490978FD
:103D8000491E334A515CA1F1300002F094FF06460F
:103D900022462B4602F0F6FF82468B4632480068E8
:103DA00003F000FB52465B46CDE9000102F040FD06
:103DB000CDE9020102F00AFD2B490860284800788D
:103DC000401E27490870264800780428C6DA204893
:103DD0004078303809281BD2DFE800F0050A0F14BC
:103DE00015161718190020480068204908600FE0D0
:103DF0001D4800681E4908600AE01B4800681D490C
:103E0000086005E004E003E002E001E000E000BF3C
:103E100000BF00200D4908700E4908701049087055
:103E20001149086032210A4801F01EFEBDE8FF9FDB
:103E3000000C014000480040C80000201A0000208B
:103E4000CC0000201B00002028000020C90000201A
:103E500074060020CA000020860000208700002091
:103E6000CB00002000002440D0000020780000207B
:103E70005C0000206000002008B501211020FDF743
:103E8000ABF901211020FDF7A7F948208DF80300B8
:103E90004FF40050ADF8000003208DF80200694691
:103EA000F648FCF777FE10208DF803008002ADF88D
:103EB00000006946F148FCF76DFE10208DF8030004
:103EC000C002ADF8000003208DF802006946EB48FF
:103ED000FCF760FE10208DF803000420ADF8000010
:103EE00003208DF802006946E548FCF753FE08BD43
:103EF00038B50446012000900020E24948700120B6
:103F000000902DE0BDF80000204018B10120DE49EE
:103F1000086002E00020DC4908600120DB490860FD
:103F20000520FEF7E8FA0020D949C1F888010520EC
:103F3000FEF7E1FA0120D649C1F88801D548D0F84A
:103F4000340130B1CF484078BDF800100843CD4966
:103F50004870BDF800004FF6FF7101EA4000009084
:103F6000BDF80000FF28CDDD1020FEF7C4FA38BDF3
:103F700010B50020C449091D0860C7490878FFF73B
:103F8000B7FFC5494878FFF7B3FF0120C149C1F821
:103F9000BC01BC484078732801D1002010BD01202D
:103FA000FCE71CB500200190012000900020B649DC
:103FB000091D0860B8490878FFF79AFFB6494878A4
:103FC000FFF796FF0220019035E00120009026E0E7
:103FD0000120AE4908600520FEF78DFA0020AC49AB
:103FE000C1F888010520FEF786FA0120A849C1F82A
:103FF0008801A848D0F8340150B1A2489DF80410B7
:10400000405CBDF8001008439E499DF80420885488
:10401000BDF800004FF6FF7101EA40000090BDF8C6
:104020000000FF28D4DD1020FEF765FA9DF804009B
:10403000401CC0B201909DF804000928C5DB012096
:104040009149091D08601CBD002004E000218D4A33
:104050001154411CC8B20928F8DB704710B5FFF7AE
:10406000F3FFFFF79EFF8748C0788649097940EA49
:1040700001208A49088000240FE0894810F81400C4
:10408000401E012101FA00F084490988084010B956
:10409000601CC0B210BD601CC4B2102CEDDB00204F
:1040A000F8E701467748405C704770B505460C4616
:1040B00000207549091D08601020FEF71CFA012038
:1040C000FFF716FF4220FFF713FF0020FFF710FF56
:1040D0002846FFF70DFF2046FFF70AFF0020FFF7F5
:1040E00007FF0020FFF704FF0020FFF701FF00207B
:1040F000FFF7FEFE01206749C1F8BC011020FEF762
:10410000FAF970BD10B500205F49091D0860102044
:10411000FEF7F1F90120FFF7EBFE4220FFF7E8FE82
:104120000020FFF7E5FE0020FFF7E2FE0020FFF78A
:10413000DFFE01205749C1F8BC011020FEF7DBF972
:1041400010BD10B500205049091D08601020FEF771
:10415000D2F90120FFF7CCFE4320FFF7C9FE002073
:10416000FFF7C6FE0120FFF7C3FE0020FFF7C0FEE9
:104170000020FFF7BDFE0020FFF7BAFE0020FFF78A
:10418000B7FE0020FFF7B4FE01204249C1F8BC0190
:104190001020FEF7B0F910BD10B500203A49091DF6
:1041A00008600120FFF7A4FE4420FFF7A1FE0020D5
:1041B000FFF79EFE0120FFF79BFE0320FFF798FE0E
:1041C0000020FFF795FE0020FFF792FE0020FFF78A
:1041D0008FFE0020FFF78CFE01202E49C1F8BC01A4
:1041E0001020FEF788F910BD10B500202649091DE2
:1041F00008601020FEF77FF90120FFF779FE4D20BF
:10420000FFF776FE0020FFF773FE0020FFF770FE39
:104210000120FFF76DFE01201E49C1F8BC011020EE
:10422000FEF769F910BD10B500201749091D086097
:104230001020FEF760F90120FFF75AFE4320FFF738
:1042400057FE0020FFF754FE0020FFF751FE5A20D2
:10425000FFF74EFE5A20FFF74BFE5A20FFF748FEAD
:104260005A20FFF745FE5A20FFF742FE0120094978
:10427000C1F8BC011020FEF73EF910BD001001404E
:1042800000080140A6060020B80122428801214210
:104290000000214200002242D6000020D40000206D
:1042A000D800002010B5FFF72DFFFFF72BFFFFF719
:1042B00029FFFFF746FFFFF76FFFFFF7B4FF10BDC1
:1042C00010B5FFF7CBFE174908600720FFF7E9FE9E
:1042D000154908600820FFF7E4FE1449086005202E
:1042E000FFF7DFFE124908600620FFF7DAFE1149EA
:1042F00008600C480068042805D10F4800780128A0
:1043000001D10E4908600D48006848B107480068AF
:10431000762805DA08480078012801D10849087094
:1043200010BD000074000020640000206800002020
:104330006C0000207000002018000020F800002011
:1043400019000020B048B1494860B1484860704742
:10435000AE48006940F08000AC4908617047AB4846
:10436000C16801F0010008B10120704701F00400AC
:1043700008B10220F9E701F0100008B10320F4E7CA
:104380000020F2E770B5044600BFFFF7E8FF0546DE
:10439000012D00D006E00120FEF7ADF8601E84B2CA
:1043A000002CF2D100BF04B9FF25284670BD70B5BE
:1043B0000546002445F6FF70FFF7E4FF0446C4B944
:1043C0009248006940F00200904908610846456142
:1043D000006940F04000086145F6FF70FFF7D2FF2A
:1043E0000446012C05D08948006920F00200874965
:1043F0000861204670BD70B505460E46FF20FFF7E8
:10440000C1FF044694B98148006940F001007F492A
:1044100008612E80FF20FFF7B5FF0446012C05D070
:104420007A48006920F0010078490861204670BD93
:104430000146088870472DE9F04105460E461746AB
:10444000002407E036F814102846FFF7D4FFAD1C0F
:10445000601C84B2BC42F5DBBDE8F08130B5034698
:104460000C461546002207E01846FFF7E1FF24F846
:1044700012009B1C501C82B2AA42F5DB30BD2DE914
:10448000F05F80468A461746B8F1006F02D3614854
:10449000804501D3BDE8F09FFFF754FFA8F1006B02
:1044A0004FEA9B25CBF34809C9F50074A74200DC0D
:1044B0003C464EE04FF0006101EB85208A145649DE
:1044C000FFF7CCFF00260BE009EB0600524931F85C
:1044D00010004FF6FF71884200D003E0701C86B2D6
:1044E000A642F1DB00BFA6421BDA4FF0006101EBF0
:1044F0008520FFF75CFF002608E03AF8160006EB7F
:104500000901454A22F81100701C86B2A642F4DB6C
:104510004FF0006101EB85208A143F49FFF78BFFC4
:1045200004E0224651464046FFF785FFA74200D1EE
:1045300010E06D1C4FF000090AEB440A08EB440838
:10454000381B87B2B7F5007F02DD4FF4007400E03E
:104550003C46AFE700BFFFF7FBFE00BF9AE713B58D
:104560000446012201A92046FFF789FF1CBD10B5B2
:104570000A222A492A48FFF771FF284800884FF687
:10458000FF71884215D125484088884211D12348BF
:10459000808888420DD12148C088884209D12148AD
:1045A00021490860214822490860224822490860C0
:1045B00011E01A49088803F0A5F81B49086017495B
:1045C000488803F09FF81A4908601449888803F066
:1045D00099F81949086010BD10B51348006803F038
:1045E00059F8164908801248006803F053F8134937
:1045F00048801148006803F04DF8104988800A226D
:104600000748FFF73CFF10BD23016745002002402B
:10461000AB89EFCD00000108B00600204C0200205D
:1046200000E000080000F041780000200000704128
:104630005C0000200000E0406000002060020020DC
:1046400070B504460D462946204602F0D7FE0646C0
:1046500003F004F8FD4908602946204603F098F964
:10466000064602F0FBFFFA49086070BD70B5FEF720
:10467000F1F90546012D07D1F648007808B9012067
:1046800000E00020F3490870FEF7F7F90446012C1A
:1046900007D1F148007808B9012000E00020EE4978
:1046A000087070BD0146002901DA484200E0084662
:1046B000704700B503460A46E8480078012803D051
:1046C000E7480078012805D1002B00DD0023002AEF
:1046D00000DD0022002B07DD0020E24908600120F8
:1046E000E149C1F8BC0106E00120DE490860002074
:1046F000DD49C1F8BC011846FFF7D4FFDB4908804B
:10470000002A08DD0020D749091F08600120D6498A
:10471000C1F8B00107E00120D249091F086000205C
:10472000D149C1F8B0011046FFF7BCFFCF490C31A9
:10473000088000BD41F6F420CD490968424291420B
:1047400002DA4142CA4A1160C9490968814201DD61
:10475000C7490860C74909684242914202DA4142AA
:10476000C44A1160C3490968814201DDC14908603A
:1047700070472DE9F05F04460D46601BBE49086096
:104780000846006802F0A6FF8346BC480168584608
:1047900003F000F88046B8490968B94A1268881AD7
:1047A00002F098FF8346B7480168584602F0F2FFCE
:1047B0008146414602F022FE0746B348006802F0F7
:1047C00089FF8246394602F019FE064602F046FF8E
:1047D000AD490860A8480068A9490860AA4800686F
:1047E000BDE8F09F2DE9F05F04460D46601BA74928
:1047F00008600846006802F06DFF83469F48016824
:10480000584602F0C7FF8046A0490968A04A1268CE
:10481000881A02F05FFF83469A480168584602F002
:10482000B9FF8146414602F0E9FD07469948006814
:1048300002F050FF8246394602F0E0FD064602F0E3
:104840000DFF9449086091480068914908609148BB
:104850000068BDE8F09F0146B1F57A7F03DB7D4A31
:104860001278012A01D1012000E0002070472DE9D3
:10487000F04F89B088480078012871D187480078C6
:1048800001286DD18648006828B900208549086054
:104890008549086019E282480068412807D18348A9
:1048A00000688049086000207F4908600DE27C486C
:1048B0000068422807D17D4800687A4908607C4832
:1048C0007949086001E276480068432806D1002053
:1048D00074490860764874490860F6E170480068D9
:1048E000442809D17148006880F000406D49086093
:1048F00070486D490860E8E169480068452809D1B9
:104900006A48006880F000406649086000206649F7
:104910000860DAE162480068462809D16348006807
:1049200080F000405F49086061485F490860CCE161
:104930005B480068472806D100205A4908605D4856
:1049400059490860C1E1564800684828A2D1574833
:10495000006854490860574853490860B5E1FFE7CB
:104960003F48007890B354484E490860534909784D
:10497000A1F1400002F0AEFE5149086051480168C3
:104980004F48006803F004F881464FF07E5102F072
:1049900001FF804602F006FD04460D4648480068C7
:1049A00002F000FD8046484A484B02F0EBF906460B
:1049B00022462B4601F03CFF824601F007FF3A49B0
:1049C00008603F4800683F4908607EE1FFE72348F0
:1049D0000078002839D03848324908603C490968D5
:1049E000C1F1640002F076FE35490860354801687F
:1049F0003348006802F0CCFF064602F0D3FC0446C0
:104A00000022344B02F0BEF9CDE904012C480068C5
:104A100002F0C8FC0646304A304B02F0B3F90446B7
:104A20000D462748006802F019FE0090FFF73AFE95
:104A3000C0F1000B584602F04DFE82462048016846
:104A4000504602F0A7FE01904AE066E048000020D0
:104A50004C0000201E0000201D0000201600002039
:104A600017000020B881214200802142342C0140EF
:104A70003C000020400000201C01002060000020BD
:104A8000240100205C0000202001002010010020F3
:104A90001801002014010020150000201B00002038
:104AA000280000202C000020380000207800002082
:104AB0000000A0410000A0C10000204284000020AE
:104AC000280100202C010020A4703D0AD7A3C03F7C
:104AD000940000200000F03F7B14AE47E17A743F61
:104AE00002F060FC0646FE4AFE4B02F04BF980469F
:104AF00022462B4602F06CFBCDE90201DDE90423DE
:104B000002F066FBCDE9060101F060FEF64908609F
:104B1000F6480068F6490860D7E0F64800780128B2
:104B2000FAD1F54800780128F6D11424F348F44965
:104B30000860F4480068C0F18009F3480068C0F1DB
:104B4000800A6042814503DDA14501DA4FF000098A
:104B50006042824503DDA24501DA4FF0000A484673
:104B600002F0B8FD05464FF08641E848006802F0C3
:104B7000B3FC0646294602F00DFEE5490860002117
:104B8000E348006802F0D2FE12D8504602F0A2FDBF
:104B900006464FF08641DA48006802F09DFC80F03E
:104BA00000453146284602F0F5FDCF4908600FE088
:104BB000504602F08FFD05464FF08641D048006810
:104BC00002F08AFC0646294602F0E4FDC649086068
:104BD000D04800680B2837D1CF480078401CC0B2BD
:104BE000CD49087014286FD10020CA490860CA490D
:104BF0000870CA49C548006802F000FCC349054670
:104C00000860C74902F092FE02D2C548BF49086059
:104C1000BB48006802F0C6FB0546C24AC24B01F021
:104C200007FECDE9060101F0D1FDB54983460860D4
:104C300002F0B8FB0746BD4ABD4B02F0A1F943D2D2
:104C4000BC48AF4908603FE0B24800680C2837D143
:104C5000B9480078401CC0B2B7490870142833D155
:104C60000020AC490860B4490870AC49A748006806
:104C700002F08EFEA54905460860B04902F056FDD7
:104C800002D2AE48A14908609D48006802F08AFB44
:104C90000746A44AA44B02F09BFACDE9060101F0B5
:104CA00095FD97498346086002F07CFB05469D4AC6
:104CB0009D4B02F02BF807D2A1489149086003E010
:104CC00000209D490870087000BF09B0BDE8F08F52
:104CD0009C4800889C49088005209C49088014E075
:104CE00098489A49098830F81100974909888842FC
:104CF00006DB94489549098830F8110092490880EC
:104D000092480088401C91490880904800887B2880
:104D1000E6DB8C4800888E49088005208B49088096
:104D200014E088488949098830F8110088490988C1
:104D3000884206DC83488549098830F81100844997
:104D4000088082480088401C804908807F4800888D
:104D50007B28E6DB7C4909887D4A1288881800EBAD
:104D6000D071C1F347017B4A117005207749088053
:104D700044E074487549098830F81100754909788C
:104D8000884236DD6F4971480088401C31F81000B8
:104D90007049097888422CDD6A496C480088801C7B
:104DA00031F810006B490978884222DD654967486F
:104DB0000088C01C31F8100066490978884218DA6A
:104DC000604962480088001D31F810006149097887
:104DD00088420EDA5B495D480088401D31F81000BA
:104DE0005C490978884204DA584800885A490880A2
:104DF00008E056480088401C544908805348008801
:104E00007628B6DB00BF76205449088044E04D4840
:104E10005249098830F811004E490978884236DA3B
:104E200048494E480088401C31F81000494909782B
:104E300088422CDA434949480088801C31F8100028
:104E400044490978884222DA3E4944480088C01C17
:104E500031F810003F490978884218DD39493F4848
:104E60000088001D31F810003A49097888420EDDAB
:104E700034493A480088401D31F810003549097816
:104E8000884204DD354800883549088008E0334809
:104E90000088401E31490880304800880528B6DC6B
:104EA00000BF2F4909882C4A1288881800EBD0715E
:104EB000C1F347012B4A1170704710B501218807D3
:104EC000FDF7E7F800287DD001218807FDF7F2F80B
:104ED00025480078012854D124480078401C47E038
:104EE00079E9263108AC6C3F380000202801002009
:104EF0002C01002018000020190000200000A04113
:104F000080000020680000206C0000207C00002051
:104F10002C00002074000020300100200000A04080
:104F200000002042F4433A762F1BD43FF1D4C853FB
:104F3000FB21E93FDB0F493F3101002000007041B8
:104F40007CD9A03E4C0100203A0100203201002013
:104F50003C010020850000203601002034010020A3
:104F60003801002084000020590000205800002053
:104F7000C0B24D490870052803D1002008704B4984
:104F800008700320FEF742FB4042494908600420B4
:104F9000FEF73CFB4042474908604748007818B19B
:104FA000FEF755F8FFF794FE4448007870B30220EE
:104FB000FEF736F8424908600920FEF731F841490A
:104FC000086000E06EE00120FEF72AF83E49086024
:104FD0003B480068096801EBC10202EB011100EBDC
:104FE000810138480068C72200FB02103749086079
:104FF000334800683449096808443249096808445C
:105000003249096891FBF0F031490860FFF72FFC45
:105010003048016830480068FFF712FB2F480068ED
:10502000FFF719FCC0B92E48016821480068FFF756
:10503000D9FB2C4908602C4801681E480068FFF71E
:1050400098FB2A490860FFF775FB28480168254846
:105050000068FFF72EFB03E000210846FFF729FB5D
:10506000FEF773F82249086022480068401C214975
:105070000860214800681E49096808441E49086004
:105080001C48006832280BD108460068322190FB8A
:10509000F1F01249086000201749086015490860BE
:1050A000FFF7E4FA10BD000058000020590000206E
:1050B00020000020240000201700002016000020FF
:1050C00088000020900000208C0000200C010020AF
:1050D00094000020380000202C0000205000002008
:1050E000480000203C0000204C0000204000002030
:1050F0000001002004010020080100202DE9F041FA
:1051000006460D46174600243A4629463046FDF726
:10511000D4FD3A4629463046FDF7CFFD00BF07E0F3
:105120002819C1B23A463046FDF7C7FD601CC4B22B
:10513000082CF5DBBDE8F08170B5002410E0F148E3
:1051400030F81400F0490978884201DA012500E0BE
:1051500000252A4600212046FFF7D0FF601CC4B27C
:10516000802CECDB70BD38B5E8480078F8B1E8A2D7
:1051700000210846FDF777FEE748006802F08AFA4A
:1051800004460C2003232246002100902D20FDF729
:1051900020FEE2A20A210020FDF765FE0C20032379
:1051A0000090DF4802780A211E20FDF712FEDD483C
:1051B000007800B3D6A200210846FDF754FEDA4875
:1051C000006802F067FA04460C20032322460021FF
:1051D00000902D20FDF7FDFDD0A20A210020FDF753
:1051E00042FE0C2003230090D0480A2102681E20B2
:1051F000FDF7EFFD5DE0CE480078F0B1FFF79CFFD2
:10520000CCA20A210020FDF72EFE0C2003230090E3
:10521000C94802780A212320FDF7DBFDC7A20A2135
:105220004620FDF720FE0C2003230090B6480278AC
:105230000A215F20FDF7CDFD3BE0C1480078002842
:1052400037D0C0A200210846FDF70DFE0C20042334
:105250000090BD48002102680A20FDF7BAFDBBA2FC
:1052600000212820FDF7FFFD0C2004230090B84802
:10527000002102683220FDF7ACFDB6A200215020CB
:10528000FDF7F1FD0C2004230090B34800210268D3
:105290005A20FDF79EFDA7A20A210020FDF7E3FD9D
:1052A0000C2004230090AD480A2102681420FDF769
:1052B00090FDABA214210020FDF7D5FDAB4800689E
:1052C00000280FDAAAA214215020FDF7CCFD0C20F3
:1052D00005230090A5480068424214215F20FDF795
:1052E00078FD0DE0A3A214215020FDF7BCFD0C2099
:1052F000052300909D48142102685F20FDF769FD99
:105300009DA21E210020FDF7AEFD9E4800680028EA
:105310000FDA97A21E215020FDF7A5FD0C200523D2
:1053200000909848006842421E215F20FDF751FD21
:105330000DE090A21E215020FDF795FD0C200523C5
:10534000009090481E2102685F20FDF742FD8EA26A
:1053500028210020FDF787FD8DA228214420FDF79C
:1053600082FD8CA228215A20FDF77DFD8A48006825
:10537000642190FBF1F40C200223224628210090A6
:105380003720FDF726FD84480068642190FBF1F288
:1053900001FB12040C2002232246282100904E20FB
:1053A000FDF717FD7C480068642190FBF1F201FBDA
:1053B00012000A2807DA0C2002230022282100907C
:1053C0004820FDF706FD7548007820B974A2282111
:1053D0006720FDF748FD71480078012804D171A2CB
:1053E00028216720FDF73FFD6FA232210020FDF745
:1053F0003AFD4648007828B16DA232212820FDF7F9
:1054000032FD19E04748007828B16AA232212820ED
:10541000FDF729FD10E04648007828B166A2322148
:105420002820FDF720FD07E04548007820B163A261
:1054300032212820FDF717FD61A232215020FDF70F
:1054400012FDFDF7E6FB38BD2DE9F04F87B052485D
:105450000068A0F539704000032190FBF1FABAF121
:10546000000F01DA4FF0000ABAF1640F01DD4FF0CE
:10547000640A4448006801F01EFC0746524A534B38
:1054800001F080FC054601F0E7FB8146B9F1000F11
:1054900001DAC9F100093548006801F00CFC074643
:1054A000494A4A4B01F06EFC054601F0D5FB044623
:1054B000002C00DA64424648007808B9012000E078
:1054C00000204349087016480078012819D1414846
:1054D000006802F0C3F805463F48006802F0BEF8D5
:1054E00006460D48006802F0B9F807460020029011
:1054F00003900490059000902B4632463946019067
:105500006CE072E04C0100208500002015000020B6
:1055100053504545440000007800002052580000D8
:1055200086000020180000207C000020740000206D
:10553000170000205A0000008400002059000000DD
:10554000160000204C000000880000204D000000E4
:105550008C000020520000009000002094000020E9
:10556000456E636F4C45465400000000200000204B
:105570002D0000002B000000456E636F5249474824
:105580005400000024000020564F4C544147450071
:105590002E00000056000000500000201E000020D9
:1055A0004F2D4E004F4646004D4F44452D00000004
:1055B000415050005053320043434400454C450095
:1055C00044696666000000009A9999999999F13F9B
:1055D00048010020600000205C00002057A000F07F
:1055E000C7F900205D49087026E05D480078B8B929
:1055F0005C490968A1F2DC5001F05DFB07465A4A9C
:105600005A4B01F0BFFB054601F026FB834609F02B
:10561000FF02E1B25346009055A000F0A9F90BE05B
:1056200057480068009057480368574802684D483B
:10563000016856A000F09CF907B0BDE8F08F10B5E6
:1056400048490968A1F2DC5002F044F804460121FF
:1056500000F0F0F84B48006802F03CF804460221E4
:1056600000F0E8F84648006802F034F804460321E8
:1056700000F0E0F8032000F02CF948490870002001
:105680004749087012E000BF4648008800F040001B
:105690000028F9D0444842490978405C4149091D35
:1056A00008803F480078401C3D4908703C4800781D
:1056B0003A4909788842E6DB10BD10B53BA20021CB
:1056C0000846FDF7D0FB3EA20A210020FDF7CBFBE8
:1056D0003FA214210020FDF7C6FB4148007828B105
:1056E000AFF234121E213220FDF7BDFB3D48007899
:1056F00028B1AFF240121E213220FDF7B4FB3A4828
:10570000007828B1AFF250121E213220FDF7ABFB1A
:105710003648007828B1AFF25C121E213220FDF726
:10572000A2FB33A228210020FDF79DFB35A23221E8
:105730000020FDF798FBFDF76CFA10BD7B43256454
:105740003A25643A25643A25643A25643A25643A50
:1057500025643A25643A25647D24000086000020F3
:1057600048010020440000207B14AE47E17AC43F8A
:105770007B4125643A25643A25643A25647D2400FA
:105780002400002020000020500000207B422564DF
:105790003A25643A25643A25647D240041010020BD
:1057A0004001002000380140B00A0020544F205032
:1057B0007265737320557365724B65790000000044
:1057C000544F2053656C656374204D6F6465000011
:1057D00043757272656E74204D6F64652049730065
:1057E00015000020180000201700002016000020DF
:1057F000442D50726573732055736572204B657923
:1058000000000000544F20456E642053656C6563B2
:1058100074696F6E0000000030B503461C788C542C
:105820005D78541C0D559D78941C0D55DD78D41C65
:105830000D5530BD13B50C460A2C00DC04B91CBD57
:105840000B2C43D2DFE804F042060C12181E242A67
:1058500030363C00012244496846FFF7DDFF35E061
:10586000052241496846FFF7D7FF2FE009223E494C
:105870006846FFF7D1FF29E00D223B496846FFF754
:10588000CBFF23E0112238496846FFF7C5FF1DE032
:10589000152235496846FFF7BFFF17E01922324944
:1058A0006846FFF7B9FF11E01D222F496846FFF750
:1058B000B3FF0BE021222C496846FFF7ADFF05E05E
:1058C000252229496846FFF7A7FF00BF00BF00BF98
:1058D000B5E701460A2900DC09B9002070472420F9
:1058E000214A10700B293CD2DFE801F03B060B1077
:1058F000151A1F24292F350005201B4A5071062038
:10590000ECE70920184A50720A20E7E70D20164AF2
:1059100050730E20E2E71120134A50741220DDE785
:105920001520114A50751620D8E719200E4A5076D6
:105930001A20D3E71D200C4A50771E20CEE72120E5
:10594000094A82F821002220C8E72520064A82F869
:1059500025002620C2E72920034A82F829002A20B0
:10596000BCE70020BAE70000B00A00207047000042
:105970000FB4044910B503AA029800F0FFF810BC58
:105980005DF814FBB00000202DE9F0410E460446FE
:10599000002020622046E168884730B3252805D0E2
:1059A000D4E901219047206A401CF2E7E1682046D3
:1059B00000278847050018D0A5F14100192802D812
:1059C00020354FF400673246294620462760FAF713
:1059D000E7FB40B1012804D0F61D26F00706083683
:1059E000D8E7361DD6E72846DAE7206ABDE8F08119
:1059F0002DE9F0410646002410687529314616A5A8
:105A000010D0AFF30080002802DA404213A507E06F
:105A100031688A0701D512A502E0490704D511A50E
:105A2000012401E0AFF3008000210A2206F12407DF
:105A300009E0B0FBF2FCB0FBF2F302FB1C003030DB
:105A400078541846491C0028F3D123462A4630468C
:105A5000BDE8F04100F039B8000000002D00000062
:105A60002B000000200000004FF000020429C0F0CD
:105A7000128010F0030C00F09580CCF1040CBCF106
:105A8000020F18BF00F8012BA8BF20F8022BA1EBD2
:105A90000C0100F087B85FEAC17C24BF00F8012B3D
:105AA00000F8012B48BF00F8012B70477047704782
:105AB0007047704710B500F09BF8006810BD10B536
:105AC000044600F095F8046010BD2DE9F0470D463E
:105AD00099469246044600F124080168880604D5D8
