:020000040800F2
:1000000050110020BD210008FD210008FF2100083B
:1000100003220008072200080B220008000000004D
:100020000000000000000000000000000F22000897
:100030001122000800000000132200081522000809
:10004000D7210008D7210008D7210008D7210008B0
:10005000D7210008D7210008D7210008D7210008A0
:10006000D7210008D7210008D7210008D721000890
:10007000D7210008D7210008D7210008D721000880
:10008000D7210008D7210008D7210008D721000870
:10009000D7210008D7210008D7210008D721000860
:1000A000D7210008D7210008D7210008D721000850
:1000B000914C0008A33500088B350008D7210008B3
:1000C000D7210008D7210008D7210008D721000830
:1000D000D7210008D7210008D7210008933B00084A
:1000E000D7210008D7210008D721000800F002F826
:1000F00000F05FF80AA090E8000C82448344AAF163
:100100000107DA4501D100F054F8AFF2090EBAE860
:100110000F0013F0010F18BFFB1A43F0010318473B
:10012000A0810000C08100000A444FF0000C10F8CC
:10013000013B13F0070408BF10F8014B1D1108BF65
:1001400010F8015B641E05D010F8016B641E01F805
:10015000016BF9D113F0080F1EBF10F8014BAD1C55
:100160000C1B09D16D1E58BF01F801CBFAD505E073
:1001700014F8016B01F8016B6D1EF9D59142D6D3CD
:10018000704700000023002400250026103A28BFF5
:1001900078C1FBD8520728BF30C148BF0B607047F9
:1001A000642905F06782002070471FB51FBD10B598
:1001B00010BD05F083FB1146FFF7F7FF02F01CF9B5
:1001C00005F0A1FB03B4FFF7F2FF03BC02F082FBD2
:1001D00030BF72B662B680F3088870473149014378
:1001E000314A1160704770B5002100230F22C47896
:1001F00004B32D4C246804F4E064C4F5E064210ADF
:10020000C1F10403CA40447804FA03F1847814402D
:1002100021430901254C0678A155047804F01F05F7
:100220000124AC4005786D11AD0005F1E025C5F85D
:10023000004109E0047804F01F050124AC401C4D86
:100240000678761145F8264070BD1A4A0A400243E6
:10025000154B1B1F1A60704739B1134A121D1268E3
:100260000243114B1B1D1A6006E00F4A121D126853
:1002700082430D4B1B1D1A607047042808D14FF0B4
:10028000E021096941F004014FF0E022116107E02B
:100290004FF0E021096921F004014FF0E0221161E3
:1002A000704700000000FA050CED00E000E400E0FB
:1002B00080E100E080FFFF1F10B50446FA48844249
:1002C00008D10121401500F01DFE0021601500F04D
:1002D00019FE17E0F548844208D10121001500F00D
:1002E00011FE0021201500F00DFE0BE0F0488442C5
:1002F00008D10121C80300F005FE00214FF40040A1
:1003000000F000FE10BD30B502460020002350680A
:10031000E84C20400D790C6844EA052420435060E5
:100320009068E54C2040D1E902542C434D7944EAD1
:10033000450420439060D06A20F470000C7C641E59
:10034000E4B2234340EA0350D06230BD0021016093
:10035000017141718160C16001210174704721B157
:10036000826842F00102826003E0826822F00102AA
:100370008260704721B1826842F48072826003E03B
:10038000826822F480728260704710B50023CBB27D
:100390001AB144681C43446002E044689C434460D2
:1003A00010BD816841F0080181607047014600205E
:1003B0008A6802F008020AB1012000E000207047BC
:1003C000816841F0040181607047014600208A681D
:1003D00002F004020AB1012000E00020704721B1C0
:1003E000826842F4A002826003E0826822F4A002E4
:1003F00082607047014600208A6802F480020AB1D8
:10040000012000E00020704710B50A4600210023BB
:10041000416821F46041531E41EA4331416010BDFF
:1004200021B1426842F40062426003E0426822F473
:10043000006242607047F0B504460D46002000217E
:10044000092D11DDE068A5F10A0606EB460707262F
:1004500006FA07F18843A5F10A0606EB460603FAF9
:1004600006F10843E0600CE0206905EB450707262C
:1004700006FA07F1884305EB450603FA06F108433F
:100480002061072A0FDA606B561E06EB86071F26CF
:1004900006FA07F18843561E06EB860605FA06F1B2
:1004A0000843606322E00D2A0FDA206BD61F06EBAB
:1004B00086071F2606FA07F18843D61F06EB860635
:1004C00005FA06F10843206310E0E06AA2F10D0688
:1004D00006EB86071F2606FA07F18843A2F10D06F0
:1004E00006EB860605FA06F10843E062F0BD21B18D
:1004F000826842F48012826003E0826822F48012F3
:10050000826070470146C86C80B2704766484C30C4
:100510000068704721B1426842F48062426003E0A3
:10052000426822F480624260704721B1426842F41E
:100530008052426003E0426822F480524260704779
:100540000A460021816821F4E0411143816070472F
:1005500021B1826842F40042826003E0826822F4A2
:1005600000428260704721B1826842F402128260C8
:1005700003E0826822F40212826070470146002084
:100580008A6802F400120AB1012000E000207047DE
:10059000F0B504461546002000220026092911DD89
:1005A000E068A1F10A0707EB470C072707FA0CF2EE
:1005B0009043A1F10A0707EB470703FA07F210433C
:1005C000E0600CE0206901EB410C072707FA0CF210
:1005D000904301EB410703FA07F210432061A06B3F
:1005E000C0F30156EF1C06F1010CA7EB0C0707EB5B
:1005F000870C1F2707FA0CF29043EF1C06F1010C41
:10060000A7EB0C0707EB870701FA07F21043A0637B
:10061000F0BD10B50A4600210023816B21F4401182
:10062000531E41EA0351816310BD08B500230093B6
:100630000090009B0B440093009B1A6008BD08B516
:10064000024600200090009201F12800009B18440F
:1006500000900098006880B208BD0A4600214168F9
:10066000164B1940114341607047416282627047E6
:100670000A460021416821F01F0111434160704783
:1006800040B109490831096841F40001064A0832BD
:10069000116007E004490831096821F40001024AA9
:1006A000083211607047000000240140002801401A
:1006B000003C0140FFFEF0FFFDF7F1FFFFFD3FFFB3
:1006C0000246002013680B400BB1012000E000201F
:1006D0007047CA430260704770B50246002000238D
:1006E00000240B125568CEB205EA060415681D40B9
:1006F00015B10CB1012000E0002070BD00220A12EB
:10070000D34303607047000010B5012000F014FCD3
:10071000002000F011FC10BD2A49086070472949EB
:10072000091F0860704727498431086070470146F7
:100730000020254A10884FF67F4210400843224A85
:1007400010807047014600201F4A10884FF68072C3
:10075000104008431C4A1080704708B500220092E0
:10076000194A2C3A0092009A02440092009A1160B1
:1007700008BD08B501460020009013482C380090B1
:100780000098084400900098008808BD0D489C30EF
:100790000068C0B270470C480830008840F0010083
:1007A00009490831088070470648A0300068C0B287
:1007B000704705480830008840F0020002490831BF
:1007C0000880704704860D422C6C004010B504462A
:1007D000CC48844208D10121042000F093FB002181
:1007E000042000F08FFB46E0C748844208D1012175
:1007F000082000F087FB0021082000F083FB3AE08E
:10080000C248844208D10121102000F07BFB002166
:10081000102000F077FB2EE0BD48844208D1012172
:10082000202000F06FFB0021202000F06BFB22E075
:10083000B848844208D10121402000F063FB002128
:10084000402000F05FFB16E0B348844208D101214C
:10085000802000F057FB0021802000F053FB0AE0CD
:10086000AE48844207D10121801500F04BFB0021E6
:10087000A01500F047FB10BD10B50121084600F09F
:1008800041FB0021012000F03DFB10BD2DE9F041AE
:10089000024600250026002000230024002791F8AE
:1008A00003C00CF00F0591F803C00CF0100CBCF164
:1008B000000F03D091F802C04CEA050591F800C082
:1008C000BCF1000F31D0146800202BE04FF0010C78
:1008D0000CFA00F3B1F800C00CEA03069E4220D1E6
:1008E00083004FF00F0C0CFA03F7BC4305FA03FC2E
:1008F0004CEA040491F803C0BCF1280F06D14FF074
:10090000010C0CFA00FCC2F814C00AE091F803C014
:10091000BCF1480F05D14FF0010C0CFA00FCC2F8F5
:1009200010C0401C0828D1D31460B1F800C0BCF13D
:10093000FF0F34DD546800202EE000F1080C4FF06A
:10094000010808FA0CF3B1F800C00CEA03069E4255
:1009500021D183004FF00F0C0CFA03F7BC4305FACA
:1009600003FC4CEA040491F803C0BCF1280F05D144
:1009700000F1080C08FA0CF8C2F8148091F803C0D2
:10098000BCF1480F07D100F1080C4FF0010808FA3C
:100990000CF8C2F81080401C0828CED35460BDE883
:1009A000F0814FF6FF710180022181700421C17036
:1009B00070470246002093680B400BB1012000E015
:1009C000002070470146886880B2704702460020C8
:1009D000D3680B400BB1012000E0002070470146B6
:1009E000C86880B2704701617047416170470AB1C1
:1009F000016100E041617047C16070474FF480328F
:100A00000A4382618161826182698269704702461C
:100A10000020434B18684FF68073184040EA0210DC
:100A200008433F4B186070473E49C8617047F0B5B6
:100A30000A46002300240021002500F00046B6F1FC
:100A4000004F02D1364EF16901E0354E7168C0F3B6
:100A5000034583B200F44016B6F5401F08D121F0DB
:100A600070612F4E766826F070662D4F7E6012E022
:100A700000F48016B6F5801F06D1032606FA05F4A9
:100A8000A14341F0706106E0460D360103FA06F617
:100A9000B14341F0706122B1460D360103FA06F60A
:100AA000314300F00046B6F1004F02D11C4EF16117
:100AB00001E01B4E7160F0BD30B500228B071C0FAA
:100AC0000F2303FA04F2164B08338C1053F824302A
:100AD0009343134C08348D1044F8253023468C1072
:100AE00053F824308C07240F00FA04F423430C4CF1
:100AF00008348D1044F8253030BD0A49DC310860D7
:100B00007047000000080140000C01400010014047
:100B10000014014000180140001C01400020014069
:100B2000000001400000204210B50121080700F03C
:100B3000F6F900214FF0805000F0F1F910BD2A497C
:100B40000862704728490861704701460020274A1B
:100B5000106820F0E0000843106070472249A0317F
:100B60000860704710B502460020204B186820F03E
:100B70000300104318601E4B1B6843F004031C4C19
:100B80002360012901D130BF00E020BF184B1B6852
:100B900023F00403164C236010BD1448006840F095
:100BA0000400124908600846006840F0020008602E
:100BB0000F48006840F004000D49086000BF00BF06
:100BC00030BF704701460020084A52680A400AB107
:100BD000012000E0002070470449096841EA8001D3
:100BE000024A11607047000000000E420070004091
:100BF00010ED00E0DF48006840F00100DD490860CA
:100C000008464068DC490840DA4948600846006800
:100C1000DA490840D74908600846006820F4802077
:100C200008600846406820F4FE0048604FF41F004A
:100C300088607047CF49096821F48031CD4A11603E
:100C40001146096821F480211160B0F5803F03D07E
:100C5000B0F5802F0ED106E0C649096841F4803115
:100C6000C44A116007E0C349096841F4A021C14AA0
:100C7000116000E000BF00BF704710B501460022C0
:100C8000002300204A11012A02D1BA4C236806E051
:100C9000022A02D1B74C236A01E0B64C636A01F024
:100CA0001F02012494401C400CB1012000E00020F0
:100CB00010BD38B5002000900024002500BF312071
:100CC000FFF7DBFF05460098401C00900098B0F548
:100CD000A06F01D0002DF2D03120FFF7CEFF08B178
:100CE000012400E00024204638BD01460020A14A2E
:100CF000106820F0F80040EAC10010607047A04979
:100D000008607047024600209A4B586820F47C1017
:100D100042EA01031843974B5860704798490866A8
:100D2000704701460020934A506820F003000843B2
:100D3000506070478F48406800F00C0070470146D3
:100D400000208C4A506820F0F00008435060704743
:100D500001460020874A506820F4E0600843506054
:100D6000704701460020834A506820F4605040EAF2
:100D7000C1005060704729B17E4A527A02437D4BD0
:100D80005A7204E07B4A527A82437A4B5A72704715
:100D90007B49D8310860704701460020754A506889
:100DA00020F440400843506070470021714A2032CF
:100DB0001170704A82F82010012802D004280AD14C
:100DC00004E001216B4A2032117005E00521694AD7
:100DD0002032117000E000BF00BF70476949086011
:100DE00070476449096A0143624A11627047654964
:100DF00044390860704730B50021002200240023E8
:100E00005C4D6D6805F00C0121B1042905D008295D
:100E100023D105E05C4D056022E05B4D05601FE0DD
:100E2000544D6D6805F47012524D6D6805F48034B0
:100E3000022505EB92421CB9544D554305600BE069
:100E40004C4D6D6805F400351DB1504D554305609E
:100E500002E04D4D5543056002E04B4D056000BF7B
:100E600000BF444D6D6805F0F0010909484D6B5C09
:100E70000568DD4045603F4D6D6805F4E061090A95
:100E8000434D6B5C4568DD4085603A4D6D6805F407
:100E90006051C90A3E4D6B5C4568DD40C560354D0B
:100EA0006D6805F44041890B3A4D6B5CC568B5FB34
:100EB000F3F5056130BD29B12E4A526902432D4B2D
:100EC0005A6104E02B4A526982432A4B5A617047A7
:100ED00029B1284A92690243264B9A6104E0254AC7
:100EE00092698243234B9A61704729B1214AD269A2
:100EF0000243204BDA6104E01E4AD26982431D4B53
:100F0000DA61704729B11B4AD2680243194BDA6093
:100F100004E0184AD2688243164BDA60704729B160
:100F2000144A12690243134B1A6104E0114A126910
:100F30008243104B1A61704712494039086070476C
:100F40000F49C86470470B49C87170470948406A27
:100F500040F0807007494862704701460020054A0A
:100F600092680A400AB1012000E000207047014960
:100F700088727047001002400000FFF8FFFFF6FE85
:100F8000000042428004424200127A0000093D0003
:100F9000000000201000002010B50446FE488442E6
:100FA00008D10121C014FFF7ADFF0021E014FFF7C5
:100FB000A9FFC4E0B4F1804F08D101210846FFF732
:100FC000AEFF00210120FFF7AAFFB8E0F3488442FA
:100FD00008D101210220FFF7A2FF00210220FFF724
:100FE0009EFFACE0EE48844208D101210420FFF7C7
:100FF00096FF00210420FFF792FFA0E0E948844219
:1010000008D101210820FFF78AFF00210820FFF7FF
:1010100086FF94E0E448844208D101211020FFF7C4
:101020007EFF00211020FFF77AFF88E0DF4884422E
:1010300008D101212020FFF772FF00212020FFF7B7
:101040006EFF7CE0DA48844208D101214014FFF7AA
:1010500059FF00216014FFF755FF70E0D548844226
:1010600009D10121C804FFF74DFF00214FF40020F2
:10107000FFF748FF63E0D048844209D10121080509
:10108000FFF740FF00214FF48010FFF73BFF56E0D1
:10109000CA48844209D101214805FFF733FF0021E6
:1010A0004FF40010FFF72EFF49E0C548844208D1F5
:1010B00001214020FFF733FF00214020FFF72FFFE1
:1010C0003DE0C048844208D101218020FFF727FF7E
:1010D00000218020FFF723FF31E0BB48844208D184
:1010E00001218015FFF71BFF0021A015FFF717FF57
:1010F00025E0B648844209D101210804FFF702FF28
:1011000000214FF48030FFF7FDFE18E0B048844224
:1011100009D101214804FFF7F5FE00214FF400300A
:10112000FFF7F0FE0BE0AB48844208D101218804B0
:10113000FFF7E8FE00214FF48020FFF7E3FE10BD2B
:1011400000220288944B98420ED0994B98420BD0C3
:10115000B0F1804F08D0914B984205D0904B984207
:1011600002D0904B984204D14FF68F731A404B88AF
:101170001A438D4B984207D08C4B984204D04FF6BF
:10118000FF431A40CB881A4302808B8883850B88E3
:101190000385814B98420BD0854B984208D08B4BEE
:1011A000984205D08A4B984202D08A4B984201D18E
:1011B0000B7A038601238382704770B500240022D6
:1011C0000023058C4FF6FE7635400584028C83881B
:1011D000048B4FF68F752C40B51E2C400D882C4388
:1011E000751E2A400D892A434D882A436A4DA8421C
:1011F0000BD06F4DA84208D0744DA84205D0744D55
:10120000A84202D0734DA84213D14FF6F7752A4079
:101210004D892A434FF6FB752A408D882A434FF6A5
:10122000FF652B404FF6FF552B408D892B43CD8911
:101230002B4383800483CD888586028470BD70B57E
:10124000002400220023058C4FF6EF7635400584FC
:10125000028C8388048B48F6FF752C404FF6FF45BF
:101260002C400D884FF6FF7606EA05252C434FF6F5
:10127000DF752A400D8906EA05152A434D8806EADE
:1012800005152A43444DA84202D0494DA8421DD11C
:101290004FF67F752A404D894FF6FF7606EA051511
:1012A0002A434FF6BF752A408D8806EA05152A4362
:1012B0004FF6FF352B404FF2FF752B408D8906EA24
:1012C00085052B43CD8906EA85052B43838004835E
:1012D000CD880587028470BD70B5002400220023EC
:1012E000058C4FF6FF6635400584028C8388848B1D
:1012F0004FF68F752C404FF6FC752C400D882C4313
:101300004FF6FF552A400D894FF6FF7606EA052570
:101310002A434D8806EA05252A431F4DA84202D0DC
:10132000234DA8421DD14FF2FF752A404D894FF63B
:10133000FF7606EA05252A434FF6FF352A408D88B9
:1013400006EA05252A434EF6FF752B404DF6FF753C
:101350002B408D8906EA05152B43CD8906EA051534
:101360002B4383808483CD888587028470BD70B5CC
:10137000002200230024058C4EF6FF7635400584BC
:10138000038C8488828B48F6FF752A404FF6FF4510
:101390002A400D8820E00000002C0140000400409D
:1013A00000080040000C0040001000400014004005
:1013B00000340140004C0140005001400054014005
:1013C00000180040001C0040002000400040014088
:1013D00000440140004801404FF6FF7606EA05252B
:1013E0002A434DF6FF752B400D8906EA05352B4340
:1013F0004D8806EA05352B43FA4DA84202D0FA4D36
:10140000A84208D14BF6FF752C408D894FF6FF7628
:1014100006EA85152C4384808283CD88A0F840504D
:10142000038470BD828B4FF2FF331A408283828B1C
:101430004FF6FF7303EA01231A4382837047F0B526
:101440000C461546002200210026078C4EF6FF7C34
:1014500007EA0C070784828B018C4FF6FF7707EAB7
:10146000043640F6FF473A404FF6FF7707EA052774
:101470003A434FF6FF7707EA03373A43D94FB8426A
:101480000ED0D94FB8420BD0B0F1804F08D0D74F13
:10149000B84205D0D64FB84202D0D64FB84206D196
:1014A0004DF6FF77394046F48057394305E047F65B
:1014B000FF57394044F48057394382830184F0BD9B
:1014C000828B4FF6F3731A408283828B0A438283A6
:1014D0007047F0B50C461546002200210026078C07
:1014E0004FF6FF6C07EA0C070784828B018C4FF6DE
:1014F000FF7707EA04264FF60C773A404FF6FF775E
:1015000007EA03172F433A43B64FB8420ED0B64FFF
:10151000B8420BD0B0F1804F08D0B44FB84205D0DC
:10152000B34FB84202D0B34FB84206D14FF6FF577F
:10153000394046F48077394305E04FF2FF57394090
:1015400044F48077394382830184F0BD028B4FF2EB
:10155000FF331A400283028B4FF6FF7303EA012325
:101560001A4302837047F0B50C461546002200214D
:101570000026078C4FF6EF7C07EA0C070784028BE6
:10158000018C4FF6FF7707EA041640F6FF473A4012
:101590004FF6FF7707EA03373A434FF6FF7707EA3C
:1015A00005273A438F4FB8420ED08F4FB8420BD029
:1015B000B0F1804F08D08D4FB84205D08C4FB84263
:1015C00002D08C4FB84206D14FF6DF77394046F053
:1015D0001007394305E04FF65F77394044F01007B4
:1015E000394302830184F0BD028B4FF6F3731A4036
:1015F0000283028B0A4302837047F0B50C461546FE
:1016000000220021068C4FF6FE773E400684028BB6
:10161000018C4FF60C7632407E1C06EA03162E43F0
:101620003243704EB0420ED06F4EB0420BD0B0F18C
:10163000804F08D06D4EB04205D06D4EB04202D002
:101640006C4EB04206D14FF6FD76314044F00106B3
:10165000314305E04FF6F576314044F00106314361
:1016600002830184F0BD70B505460C465D48854295
:101670000ED05D4885420BD0B5F1804F08D05B4855
:10168000854205D05A48854202D05A48854200D149
:1016900000E000BF208850B92389A28861882846CD
:1016A000FFF7ABFFE1882846FFF79EFF25E0208883
:1016B00004280AD12389A28861882846FFF753FFAE
:1016C000E1882846FFF742FF17E0208808280AD162
:1016D0002389A28861882846FFF7FBFEE188284617
:1016E000FFF7EEFE09E02389A28861882846FFF70C
:1016F000A6FEE1882846FFF795FE70BD2DE9F04172
:1017000005460C4600260127608808B9022600E03D
:101710000026A088012801D1022700E001272088A7
:10172000A0B92389A28861882846FFF766FFE1886F
:101730002846FFF759FF23893A4631462846FFF7E6
:1017400012FFE1882846FFF701FF13E02389A288F2
:1017500061882846FFF707FFE1882846FFF7F6FE75
:1017600023893A4631462846FFF747FFE188284655
:10177000FFF73AFFBDE8F0810A884B881A438B884F
:101780001A43CB881A430B891A434B891A438B8916
:101790001A43A0F8442070474FF6FF718180002162
:1017A0000180C18041800172704700210180418029
:1017B0008180C180018141818181C1817047002187
:1017C00001804180012181800021C1800181704719
:1017D0000021018041808180C1800181418181811E
:1017E00070470000002C014000340140000400401C
:1017F00000080040000C004021B1028842F00102C4
:10180000028004E002884FF6FE731A40028070479F
:1018100031B1B0F8442042F40042A0F8442005E081
:10182000B0F84420C2F30E02A0F8442070471AB169
:1018300083890B43838102E083898B4383817047D3
:101840008182704741EA0203A0F8483070471AB11C
:1018500083890B43838102E083898B4383817047B3
:1018600001894FF6F8721140018170470A46002144
:1018700001894FF68F73194011430181704730B5CC
:1018800004460D4629462046FFF7F0FF208940F028
:101890000700208130BD2DE9F04104460D46164673
:1018A0001F46602D06D13B46012231462046FFF7F8
:1018B0005AFE05E03B46012231462046FFF79DFED9
:1018C00029462046FFF7D2FF208940F007002081FB
:1018D000BDE8F08130B50C4600210189C9B24FF650
:1018E000FF7505EA0325154325432943018130BDD2
:1018F0002DE9F04105460E4617469846002443461A
:101900003A4631462846FFF7E5FF2C894FF6F87036
:10191000044044F007044FF68F70044044F0700414
:101920002C81BDE8F081F0B504460D4616461F46F1
:101930003B46324629462046FFF7CCFF208940F43B
:1019400080402081F0BD0185828270470A460021D7
:1019500001884FF68F731940114301807047F0B52D
:101960000C4615461E460021002200230189028BE9
:10197000038C4FF6F877394021434FF6FC473A4045
:1019800040F201173A434FF6DD773B404FF6FF77C1
:1019900007EA06172F433B43018102830384F0BD0E
:1019A0000A460021018B4FF68F73194011430183C2
:1019B00070470A460021018B48F6FF7319404FF625
:1019C000FF7303EA02231943018370470A4600218B
:1019D000818B4FF68F7319401143818370470A46FC
:1019E0000021818B48F6FF7319404FF6FF7303EA1D
:1019F000022319438183704721B1028842F080029B
:101A0000028004E002884FF67F731A40028070471C
:101A100021B1828842F00402828004E082884FF67D
:101A2000FB731A408280704721B1828842F008021D
:101A3000828004E082884FF6F7731A4082807047F4
:101A400021B1828842F00102828004E082884FF650
:101A5000FE731A40828070470A460021018B4FF6C0
:101A6000F77319401143018370470A460021018B27
:101A70004FF2FF7319404FF6FF7303EA0223194335
:101A8000018370470A460021818B4FF6F773194096
:101A90001143818370470A460021818B4FF2FF7307
:101AA00019404FF6FF7303EA0223194381837047FD
:101AB0000A460021018B4FF6FB7319401143018345
:101AC00070470A460021018B4FF6FF3319404FF64D
:101AD000FF7303EA02231943018370470A4600217A
:101AE000818B4FF6FB7319401143818370470A467F
:101AF0000021818B4FF6FF3319404FF6FF7303EA45
:101B000002231943818370470A460021018B4FF657
:101B10007F7319401143018370470A460021018BEE
:101B2000C1F30E014FF6FF7303EA02231943018349
:101B300070470A460021818B4FF67F73194011438D
:101B4000818370470A460021818BC1F30E014FF655
:101B5000FF7303EA02231943818370470A46002179
:101B6000018C4FF6FD7319401143018470470A46FA
:101B70000021018C4FF6F77319401143018470471F
:101B80000A460021018C4FF6DF7319404FF6FF73B0
:101B900003EA02131943018470470A460021018CAD
:101BA0004FF67F7319404FF6FF7303EA0213194390
:101BB000018470470A460021018C4FF6FF531940FB
:101BC0004FF6FF7303EA02231943018470470A4664
:101BD0000021018C4FF2FF7319404FF6FF7303EAA7
:101BE00002231943018470470A460021018C4DF6F7
:101BF000FF7319404FF6FF7303EA02331943018460
:101C0000704730B5002301248C40A3B2048C9C4360
:101C10000484048C02FA01F5ADB22C43048430BD77
:101C200030B5002304248C40A3B2048C9C4304846C
:101C3000048C02FA01F5ADB22C43048430BD70B5BA
:101C40000346002000241846183001258D40ACB210
:101C50001D8CA5431D8409B1082909D100EB610041
:101C6000056825F0700505600568154305600EE000
:101C70000D1FC5F34E052844056825F4E0450560B1
:101C800005684FF6FF7606EA02263543056070BD0B
:101C900021B1028842F00202028004E002884FF67D
:101CA000FD731A400280704721B1028842F004029D
:101CB000028004E002884FF6FB731A4002807047EE
:101CC00021B1828842F08002828004E082884FF64F
:101CD0007F731A408280704702884FF6F7731A406C
:101CE000028002880A430280704782884FF68F7311
:101CF0001A40828082880A438280704702894FF6A8
:101D0000F8731A40028102890A43028170470289EE
:101D10004FF67F731A40028102890A43028170479D
:101D2000818470478185704781867047018770473D
:101D300081877047A0F84010704702884FF6FF4334
:101D40001A40028002880A43028070470146888E4A
:101D500070470146088F70470146888F70470146DB
:101D6000B1F8400070470146888C70470146088DE5
:101D7000704702460020138A0B400BB1012000E09F
:101D800000207047CA430282704730B502460020E7
:101D900000230024158A05EA0103958905EA010458
:101DA00013B10CB1012000E0002030BDCA43028213
:101DB0007047000010B50446FB48844209D1012158
:101DC0008803FFF79FF800214FF48040FFF79AF84F
:101DD00032E0F648844209D101214804FFF79FF818
:101DE00000214FF40030FFF79AF825E0F0488442D4
:101DF00009D101218804FFF792F800214FF48020D7
:101E0000FFF78DF818E0EB48844209D10121C8049E
:101E1000FFF785F800214FF40020FFF780F80BE072
:101E2000E548844208D101210805FFF778F8002130
:101E30004FF48010FFF773F810BD2DE9F04786B01E
:101E400005460E460024A24600BFA1460027B089E1
:101E500000B100BF2F462C8A4CF6FF700440F0887A
:101E600004432C82AC894EF6F3100440B0883189CB
:101E70000843718908430443AC81AC8A4FF6FF40A4
:101E80000440B0890443AC8201A8FEF7B4FFC64801
:101E9000874202D1DDF810A001E0DDF80CA0A8898E
:101EA00000F4004040B10AEBCA0000EB0A103168B0
:101EB0004900B0FBF1F807E00AEBCA0000EB0A109A
:101EC00031688900B0FBF1F86420B8FBF0F0040140
:101ED0002009642101FB1089A88900F4004040B169
:101EE000322000EBC900B0FBF1F000F00700044322
:101EF00008E0322000EB09106421B0FBF1F000F0A3
:101F00000F0004432C8106B0BDE8F0874FF4165152
:101F1000016000218180C18001810C21418100216B
:101F20008181704710B502460020108A4FF2FF03EE
:101F300018400B884C8823438C882343CC88234348
:101F40001843108210BD0021018041808180C18032
:101F5000704721B1828942F40052828104E0828973
:101F60004DF6FF731A4082817047F0B50346002496
:101F700000260025002040F66A17B94200D100BFB4
:101F80001846C1F3421401F01F06012707FA06F5AF
:101F9000012C01D10C3004E0022C01D1103000E002
:101FA00014301AB107682F43076002E00768AF4397
:101FB0000760F0BD1AB1838A0B43838202E0838AF3
:101FC0008B4383827047028A4FF6F0731A40028275
:101FD000028A0A430282704782894FF2FF731A40D5
:101FE000828182890A438281704721B1828942F0CD
:101FF0000202828104E082894FF6FD731A408281D9
:102000007047028A4FF6DF731A400282028A0A433F
:102010000282704721B1028A42F48042028204E0C7
:10202000028A4BF6FF731A4002827047C1F308021E
:102030008280704701468888C0F308007047818914
:1020400041F0010181817047028BD2B20283028B81
:1020500042EA012202837047028B02F47F4202832C
:10206000028B0A430283704721B1828A42F0200228
:10207000828204E0828A4FF6DF731A4082827047C0
:1020800021B1828A42F01002828204E0828A4FF6F5
:10209000EF731A408282704721B1828A42F00802AF
:1020A000828204E0828A4FF6F7731A408282704778
:1020B00021B1828942F40042828103E08289C2F325
:1020C0000E028281704721B1828A42F400628282CC
:1020D00004E0828A4FF2FF731A4082827047828A3C
:1020E0004FF6FB731A408282828A0A4382827047CB
:1020F00021B1828A42F00202828204E0828A4FF693
:10210000FD731A408282704702460020B1F5007FBD
:1021100000D100BF13880B400BB1012000E000206C
:10212000704701F40072B2F5007F00D100BFCA43CE
:102130000280704770B5024600240023002500206D
:1021400040F66A16B14200D100BFC1F3421501F05A
:102150001F03012606FA03F3012D02D196893340AD
:1021600006E0022D02D1168A334001E0968A334000
:102170000C12012606FA04F41688344013B10CB18F
:10218000012000E0002070BD10B50022002340F6C1
:102190006A14A14200D100BF0A1201249440A3B2E4
:1021A000DC43048010BD00000038014000440040C2
:1021B00000480040004C0040005000400948804763
:1021C00009480047FEE7FEE7FEE7FEE7FEE7FEE719
:1021D000FEE7FEE7FEE7FEE704480549054A064B31
:1021E00070470000F7220008ED000008500B0020A7
:1021F00050110020500D0020500D0020704700BFEE
:10220000FEE700BFFEE700BFFEE700BFFEE7704746
:1022100070477047704700000CB500200190009097
:102220006C48006840F480306A49086000BF694823
:10223000006800F4003000900198401C0190009864
:1022400018B90198B0F5A06FF1D16248006800F4A8
:10225000003010B10120009001E0002000900098B3
:10226000012843D15C48006840F010005A490860DA
:102270000846006820F0030008600846006840F047
:102280000200086053484068524948600846406868
:1022900048600846406840F48060486008464068EE
:1022A00020F47C1048600846406840F4E81048601C
:1022B0000846006840F08070086000BF454800682C
:1022C00000F000700028F9D04248406820F0030078
:1022D000404948600846406840F00200486000BF3E
:1022E0003C48406800F00C000828F9D10CBD10B53E
:1022F000FFF792FF10BD10B53648006840F00100AE
:10230000344908600846406834490840314948600B
:1023100008460068324908402E49086008460068AF
:1023200020F4802008600846406820F4FE004860E1
:102330004FF41F008860FFF7DAFF4FF00060294973
:10234000086010BD10B5002100200022214B5B6801
:1023500003F00C0121B1042906D0082928D107E097
:10236000214B224C236027E01F4B204C236023E0AD
:10237000184B5B6803F47010164B5B6803F48032F3
:10238000022303EB904022B9194B4343174C2360BF
:102390000DE0104B5B6803F4003323B1144B43434F
:1023A000124C236003E0104B4343104C236003E0C6
:1023B0000D4B0E4C236000BF00BF064B5B68C3F3A0
:1023C00003130C4CE15C094B1B68CB40074C2360AA
:1023D00010BD000000100240002002400000FFF885
:1023E000FFFFF6FE08ED00E000127A001400002066
:1023F00000093D0018000020022000F0D3F800F092
:1024000061F8022000F0B8F9012000F0B5F900F001
:1024100087FA00F0B5FA002141F61F4000F046FFB0
:102420004FF4E13000F018FA4FF4165001F062FB5F
:1024300000F0F0FF01F038F800F03FFE01F0C6F8C0
:1024400000F035FD01F0B0FC00BF00F03CFB0028BF
:10245000FBD14FF4967000F072F81548007810B177
:1024600000F094FE04E01348007808B100F0C4FEC8
:1024700001F0F6FF472142F20F7000F067FF16E00F
:102480000D48007830B901F083FE02F0BFFE02F083
:1024900054FD01E002F0BCFF012008490870002053
:1024A0000749087000BF054800780028FBD1E7E71E
:1024B0002B0000202A000020310000206D000020A9
:1024C0006C00002010B56FF00400FDF7D6FE2E481A
:1024D00000682E49B0FBF1F02D49087008460078DD
:1024E00000EB4001C1EBC0104FF6FF7101EAC000E4
:1024F0002849088010BD0146254A12784A434FF00A
:10250000E0235A6100229A611A46126942F00102E0
:102510001A6100BF4FF0E022106900F001021AB109
:1025200000F48032002AF5D04FF0E022126922F048
:1025300001024FF0E0231A6100229A6170470146C0
:10254000144A12884A434FF0E0235A6100229A61EC
:102550001A46126942F001021A6100BF4FF0E022F0
:10256000106900F001021AB100F48032002AF5D09F
:102570004FF0E022126922F001024FF0E0231A61CD
:1025800000229A61704700001400002000127A00B7
:10259000B4000020B6000020A44A0A400243A44B25
:1025A0001A6070470146072323EA01021202A04B7A
:1025B0001B1D18684FF6FF0318409E4B184310432D
:1025C0009B4B1B1D186070472DE9F041074688465C
:1025D00014461D462846FFF7E5FFC5F1040007FA3B
:1025E00000F60F20284100EA0800064306F00F0617
:1025F000E21704EBD2625211920002F1E022D2F80B
:1026000000212146E31704EBD3635B11A4EB431CC9
:10261000012303FA0CF31A432046E31704EBD363B8
:102620005B119B0003F1E023C3F800218248005DA9
:1026300040EA061080490855BDE8F08170B50446AF
:102640000B46CE1701EB9676C6F38700CE1701EB4B
:102650009676B610A1EB8606B606350E774B9B69CB
:1026600043F00103754EB3614FEAB63353F820309F
:102670000F26AE40B343724E46F82030334653F82F
:10268000203004FA05F61E436D4B43F820606D4B75
:102690001B6801268E4033436A4E336002F001030B
:1026A00043B1684B0C331B6801268E403343654EA3
:1026B0000C36336002F0020343B1624B08331E68EC
:1026C00001238B401E435F4B08331E6070BD00B575
:1026D00000205A490861C8601420486100208861C0
:1026E000C8610846006840F001000860084640687C
:1026F0005549084051494860084600685349084018
:102700004E4908600846006820F4802008600846AA
:10271000406820F4FE0048600020886000214FF0EF
:102720000060FFF739FF00BD10B541480830006870
:1027300040F004003E49083108604048C06940F05C
:1027400080503E49C8614248406840F4807040492A
:1027500048600846006840F00400086008460068C9
:1027600040F002000860FDF733FD10BD3148001D48
:102770002F49091D086070474106304A926942F0AE
:1027800001022E4B9A612E4A083A526822F0E0620A
:102790002B4B083B5A601A4652680A435A607047EE
:1027A00001460020254A126842F48032234B1A6009
:1027B00000BF224A126802F40032002AF9D0002237
:1027C0001E4B5A601A46126822F080721A601A462E
:1027D00053688A1E43EA8242184B5A601A4652686E
:1027E00042F480325A601A46126842F080721A60CF
:1027F00000BF124A126802F00072002AF9D0154A8E
:10280000126842F03202134B1A600C4A526842F0CE
:1028100002020A4B5A6005E0084A5268C2F3870078
:1028200000F003000228F7D17047000080FFFF1F6F
:1028300008ED00E00000FA0500E400E000100240AE
:1028400008000140000401400000FFF8FFFFF6FE11
:10285000007000400020024010B586B004460121FF
:1028600044F20400FEF734FB4FF40070ADF814009E
:1028700003208DF8160018208DF8170005A92448AC
:10288000FEF704F84FF48060ADF8140004208DF8D2
:10289000170005A91E48FDF7F9FF01940020ADF8C7
:1028A0000800ADF80A00ADF80C00ADF810000C20DF
:1028B000ADF80E0001A91748FFF7BFFA002240F259
:1028C00025511448FFF751FB01211248FFF741FB46
:1028D00006B010BD00BF70470F4A12785AB900BF4A
:1028E0000E4A128802F04002002AF9D0C2B20B4B05
:1028F0001B1D1A800AE000BF064A128802F040023F
:10290000002AF9D0C2B2034B1B1D1A807047000089
:10291000000801400038014031000020004800401C
:1029200008B501210420FEF7D3FA1020ADF800000D
:102930008DF8030003208DF8020069460C48FDF76E
:10294000A5FF08BD18B900210A4A11600FE00A4925
:102950000968491C084A1160814208D10549096883
:10296000C943064AC2F890110021034A116070471A
:102970000008014090012142BC00002000002142DB
:1029800008B501210420FEF7A3FA2020ADF80000CD
:1029900048208DF8030069467B48FDF777FF08BDA6
:1029A00001467A48006828B979480088401C784A6E
:1029B000108002E00020764A10807448006828B930
:1029C0007448007810B90120724A1070724800787B
:1029D000B0B970480078012807D170480078401CD1
:1029E0006E4A107001206C4A10706C480078022802
:1029F00006D10020694A1070694A10800220704791
:102A000062480068012804D10020624A1070624ABE
:102A100010706248007801281CD161480088401C71
:102A20005F4A10801046008888420ADD58480088B6
:102A3000884206DA0020594A1070594A1080012055
:102A4000DDE753480088884204DD0020534A1070B7
:102A5000534A10800020D2E75248007838B14B48E2
:102A6000006820B900204F4908700120704747488E
:102A70000068012801D14B4908700020F6E74A4858
:102A8000008840B94148006828B948480088401C7F
:102A90004649088002E000204449088043480088F5
:102AA000C82807DD01204049088000203F490880F0
:102AB000012070473C480088012802D100203A4993
:102AC00008800020F5E710B502F0D6FC3220FFF7B1
:102AD00067FF0446012C4CD135480078401C34492E
:102AE00008700846007848B9012032490870002073
:102AF0003149087031490870314908702C48007814
:102B0000012809D100202B4908702B4908702B4956
:102B1000087001202A49087025480078022809D148
:102B200001202549087000202249087023490870B7
:102B3000234908701E480078032809D101201F4945
:102B4000087000201B4908701B4908701C49087058
:102B50001748007804280CD100201549087001207E
:102B60001449087000201449087014490870144969
:102B70000870022C04D100F08DF800201149087073
:102B80001048007810BD00000008014014012142E7
:102B9000C6000020C0000020C1000020C2000020AC
:102BA000C4000020C8000020CC000020CA00002083
:102BB00028000020290000202B0000202A000020EF
:102BC0002C000020CE00002010B50A461AB10123C7
:102BD000FE4C236002E00023FC4C2360002114E043
:102BE0000023FB4C236000F080031BB10123241F52
:102BF000236003E00023F64C241F23600123F44CE0
:102C000023604306180E4B1CD9B20829E8DB0123C8
:102C1000EE4C236010BD30B500241CE004F1B0017F
:102C2000C8B20021FFF7D0FF00210846FFF7CCFF14
:102C300000211020FFF7C8FF002508E0E54901EB5F
:102C4000C501085D0121FFF7BFFF681CC5B2802DDB
:102C5000F4DB601CC4B2082CE0DB30BD00B5002101
:102C60008D20FFF7B1FF00211420FFF7ADFF0021F9
:102C7000AF20FFF7A9FF00BD00B500218D20FFF7B1
:102C8000A3FF00211020FFF79FFF0021AE20FFF7D8
:102C90009BFF00BD30B500240CE0002506E00020BD
:102CA000CC4901EBC5010855681CC5B2802DF6DB87
:102CB000601CC4B2082CF0DBFFF7ADFF30BDF0B5EF
:102CC000144600267F2801DC3F2900DDF0BD0B46BD
:102CD000CF1701EB5777FF10C7F10707FAB2CF17ED
:102CE00001EB5777FF10A1EBC707FDB2C5F107074E
:102CF0000123BB40DEB24CB1B64B03EBC0039B5C7F
:102D00003343B44F07EBC007BB5408E0B14B03EBB0
:102D1000C0039B5CB343AF4F07EBC007BB5400BF7E
:102D2000D4E72DE9F04F80460C4615461E46A346D3
:102D3000A5F12000C5B200273EE00C2E07D105EB1F
:102D40004500A54901EB800010F8079004E0A34876
:102D500000EB051010F807904FF0000A26E009F08C
:102D6000800028B121464046099AFFF7A8FF09E0F4
:102D7000099808B9012000E000200246214640469B
:102D8000FFF79DFF4FEA49604FEA1069601CC4B22B
:102D9000A4EB0B00B04205D15C4608F1010000F045
:102DA000FF0806E00AF1010000F0FF0ABAF1080F7F
:102DB000D5DB00BF781CC7B2B742BEDBBDE8F08FE1
:102DC00010B50246012000E050430B1EA1F10104A2
:102DD000E1B2F9D110BD2DE9FF4F81B00746914610
:102DE0001E460E9D4FF0000A002439E0301B401EA5
:102DF000C1B20A20FFF7E4FFB9FBF0F00A21B0FBF3
:102E0000F1F201FB1208BAF1000F16D1701EA042B8
:102E100013DDB8F1000F0ED10120AB4605EBDB71DD
:102E2000491001FB04710090C8B22B462022029980
:102E3000FFF777FF12E04FF0010A0120AB4605EBE8
:102E4000DB71491001FB04710090C8B208F1300138
:102E5000CAB22B460299FFF764FF00BF601CC4B2E0
:102E6000B442C3DB05B0BDE8F08F78B505460E4629
:102E7000144618E07A2D03DD002506F11000C6B2D5
:102E80003A2E04DD002005460646FFF703FF012029
:102E9000009022780C2331462846FFF742FF05F1C7
:102EA0000800C5B2641C20780028E3D178BD08B5BD
:102EB00001210820FEF70CF83820ADF800001020A2
:102EC0008DF8030002208DF8020069464448FDF7A2
:102ED000DDFC01210420FDF7FBFF4FF40040ADF8BD
:102EE000000069463F48FDF7D1FC0120FDF727FEB1
:102EF0000020FDF75AFF0020FDF711FC0020FDF730
:102F00001EFE00203249083908606420FFF717FBD5
:102F100001203549C1F88C010021AE20FFF754FE95
:102F20000021D520FFF750FE00215020FFF74CFE76
:102F30000021A820FFF748FE00213F20FFF744FEB4
:102F40000021D320FFF740FE00210846FFF73CFE9A
:102F500000214020FFF738FE00218D20FFF734FECE
:102F600000211420FFF730FE00212020FFF72CFE67
:102F700000210220FFF728FE0021A120FFF724FEF8
:102F80000021C020FFF720FE0021DA20FFF71CFE01
:102F900000211220FFF718FE00218120FFF714FE08
:102FA0000021EF20FFF710FE0021D920FFF70CFED3
:102FB0000021F120FFF708FE0021DB20FFF704FECF
:102FC00000213020FFF700FE00210FE0BC0121426C
:102FD0009481214288020020C67700083A7C0008CC
:102FE000000C01400008014000802142A420FFF7AE
:102FF000EBFD0021A620FFF7E7FD0021AF20FFF742
:10300000E3FDFFF747FE08BD002000E0401C0A2852
:10301000FCDB704710B504460723012221468C488B
:10302000FDF709FA01218A48FDF7D9F900BF02210D
:103030008748FDF745FB0028F9D08548FDF762FA7F
:1030400010BD70B500240025002082490860824927
:10305000C1F88401FFF7D8FF012080490860FFF71D
:10306000D3FF00207E49C1F88401FFF7CDFF012086
:1030700078490860FFF7C8FF00207749C1F884014C
:10308000FFF7C2FF00BF15E0002072490860FFF79C
:10309000BBFF0220FFF7BEFF0011724921F81500A7
:1030A000681CC5B201206E49C1F88401FFF7ACFF6E
:1030B000601CC4B2802CE7DB70BD00B587B0012175
:1030C0004FF40270FDF704FF4FF40040FDF764FE7B
:1030D0000120ADF8040000208DF8070001A9624826
:1030E000FDF7D4FB5A48FDF7E7F8002002908DF871
:1030F0000C008DF80D004FF4602004900020059026
:1031000001208DF8180002A95148FDF7FCF80121B3
:103110004F48FDF724F94E48FDF743F900BF4C48EE
:10312000FDF744F90028FAD14948FDF749F900BFF5
:103130004748FDF74AF90028FAD107B000BD2DE94C
:10314000F04F85B00820FFF765FF019003F00CFCFD
:103150004FF06632454BCDE9020103F055FC804645
:103160000022434B03F050FC06460022414B03F083
:103170004BFC04460022404B03F058FA824603F011
:10318000ADFB0490049805B0BDE8F08F08B50121AF
:103190001D20FDF79DFE01214802FDF799FE4FF429
:1031A0000040FDF7F9FD01213448FDF740FC022005
:1031B000ADF8000010208DF8030002208DF8020009
:1031C00069462948FDF762FB0220ADF80000102097
:1031D0008DF8030002208DF8020069462848FDF7AB
:1031E00055FB0420ADF8000000208DF8030069466F
:1031F0002348FDF74BFB08BD08B501210C20FDF766
:1032000067FE01214802FDF763FE4FF40040FDF721
:10321000C3FD0220ADF8000000208DF803006946D0
:103220001148FDF733FB0220ADF8000000208DF8B7
:10323000030069461248FDF729FB0420ADF80000A1
:1032400000208DF8030069460D48FDF71FFB08BDFF
:1032500000240140840121420080214284812142D6
:103260000000214260010020000C014066660A4017
:1032700000002640000059400000B040000230002D
:103280000008014008B501210820FDF721FE4FF498
:103290007040ADF8000010208DF8030003208DF879
:1032A000020069465848FDF7F1FA08BD30B589B00B
:1032B00005460C46FFF7E6FF0121C802FDF708FEB0
:1032C00001210420FDF704FE4FF41060ADF820004A
:1032D00018208DF8230003208DF8220008A94B4800
:1032E000FDF7D4FAADF81850ADF814400020ADF851
:1032F000160005A94648FDF723FF6020ADF804003D
:103300000120ADF806000020ADF80A00ADF80C0071
:1033100001A93F48FDF751FF01A93D48FEF727F8F5
:1033200001213B48FEF774FA08213948FEF794FB67
:1033300008213748FEF7AFFB01213548FEF75CFB5B
:1033400001213348FEF758FA09B030BD30B589B0D5
:1033500005460C4601210846FDF7C7FD0121042062
:10336000FDF7B6FD18208DF807000120ADF8040028
:103370008DF8060001A92548FDF788FAADF81C5024
:10338000ADF818400020ADF81A00ADF81E0006A9EF
:103390004FF08040FDF7D4FE6020ADF8080001201A
:1033A000ADF80A000020ADF80E00ADF8100002A93B
:1033B0004FF08040FDF701FF0821C806FEF74CFBE7
:1033C0001C208DF8000001208DF8030002208DF8EC
:1033D000010001208DF802006846FCF704FF01217E
:1033E0008807FEF709FB012211469007FEF71FFA36
:1033F00001218807FEF700FA40F2DC504FF08041CF
:10340000888609B030BD0000000C01400008014072
:10341000002C014000B587B001210220FDF765FDB9
:1034200001210420FDF754FDC020ADF80000042068
:103430008DF8030069466148FDF728FA04A8FEF7F5
:10344000ABF90020ADF810004FF6FF70ADF8140096
:103450000020ADF81600ADF8120004A95848FDF799
:103460006FFE00231A4603215548FEF778FA01A89B
:10347000FEF7A5F90A20ADF80C0001A95048FEF7A7
:10348000F2F801214E48FEF77DFC012211464C481E
:10349000FEF7CDF900214A48FEF742FC01214848D9
:1034A000FEF7AAF907B000BD00B587B001210420DE
:1034B000FDF71BFD01210820FDF70AFDC020ADF836
:1034C000000004208DF8030069463E48FDF7DEF950
:1034D00004A8FEF761F90020ADF810004FF6FF7068
:1034E000ADF814000020ADF81600ADF8120004A9E4
:1034F0003548FDF725FE00231A4603213248FEF722
:103500002EFA01A8FEF75BF90A20ADF80C0001A91C
:103510002D48FEF7A8F801212B48FEF733FC0122C5
:1035200011462948FEF783F900212748FEF7F8FBEA
:1035300001212548FEF760F907B000BD01460229C8
:1035400004D003290BD004291BD111E04FF0804295
:10355000928C10B200224FF080439A8413E0184AF4
:103560002432128810B20022154B24331A800AE04C
:10357000154A2432128810B20022134B24331A80C9
:1035800001E0002000BF00BF70470F4810300088E6
:103590000D481030008820F001000B4910310880E0
:1035A000704707481030008805481030008820F028
:1035B00001000349103108807047000000080140F5
:1035C00000040040000C01400008004008B5012143
:1035D0000820FDF77DFC4FF44070ADF8000010208E
:1035E0008DF8030003208DF802006946F748FDF7C7
:1035F0004DF908BD10B5F548001D006820F0F00039
:10360000F249091D08600846006840F03000086073
:103610000120EF490860EF48D0F8240108B90020E4
:1036200010BD0120EA49091F0860FEF764FF002071
:10363000E849C1F8A401E6488038006808B10020D4
:10364000EEE70120FEF757FF0020E149091F08605F
:103650000120E5E710B5DD48001D006820F0F0000E
:10366000DA49091D08600846006840F0300008602B
:103670000020D749091F0860D649C1F8A4010120DC
:10368000FEF739FF0120D249091F0860D149C1F86E
:10369000A401FEF730FF10BD10B50024CB48001D7B
:1036A000006820F0F000C949091D0860084600685C
:1036B00040F0800008600120C5490860FEF71BFF4C
:1036C0000120C449C1F8A001FEF715FF0AE0601C03
:1036D000C4B2322C03DDFFF7BDFF002010BD012076
:1036E000FEF709FFBA48803800680028EFD1B849D2
:1036F000091F08600120F1E710B50020B449091F37
:103700000860B248001D006820F0F000AF49091DB4
:1037100008600846006840F0300008600020AD49AD
:10372000C1F8A4010120FEF7E6FE0120A849091F07
:103730000860FEF7E0FE0020A649C1F8A00110BD18
:1037400010B50020A249091F0860A048001D0068AC
:1037500020F0F0009D49091D08600846006840F00F
:103760003000086001209B49C1F8A401FEF7C3FEA8
:1037700001209749091F0860FEF7BDFE002095490A
:10378000C1F8A00110BD70B504469048001D006846
:1037900020F0F0008D49091D08600846006840F0DF
:1037A0003000086000208A49091F0860002516E0E3
:1037B000E009874908606006040E0120FEF79BFEC1
:1037C00001208449C1F8A001FEF795FE0020804940
:1037D000091F08600120FEF78EFE681CC5B2082D87
:1037E000E6DB70BD2DE9F04105460E4617469846CA
:1037F000FFF700FF10B90120BDE8F0816906080E4F
:10380000FFF7C1FFFFF748FF18B9FFF723FF0120BB
:10381000F2E73046FFF7B7FFFFF73EFF00240BE06B
:1038200018F80400FFF7AFFFFFF736FF18B9FFF7EE
:1038300011FF0020E0E7641CBC42F1DBFFF70AFF48
:103840000020D9E770B5054600246048001D0068D7
:1038500020F0F0005D49091D08600846006840F04E
:1038600080000860002617E000205949091F086001
:103870000220FEF740FE01205649C1F8A001600673
:10388000040E53488038006808B1601CC4B202209E
:10389000FEF731FE701CC6B2082EE5DB15B1FFF74E
:1038A0002BFF01E0FFF74CFF204670BD2DE9F041F2
:1038B00006460F4614461D46FFF79CFE10B9012030
:1038C000BDE8F0817106080EFFF75DFFFFF7E4FE2B
:1038D00018B9FFF7BFFE0120F2E73846FFF753FFA4
:1038E000FFF7DAFEFFF786FE012101EB4601C8B2C1
:1038F000FFF749FFFFF7D0FE0DE0012C04D10020B7
:10390000FFF7A0FF287003E00120FFF79BFF28705E
:103910006D1C601EC4B2002CEFD1FFF79BFE00208F
:10392000CEE770B505460E460024FFF763FE284635
:10393000FFF729FF641CFFF7AFFE3046FFF723FFB8
:10394000641CFFF7A9FEFFF755FE691CC8B2FFF71C
:103950001AFF641CFFF7A0FE0020FFF773FF044668
:10396000FFF778FE204670BD2DE9F04107468846F6
:1039700015461E460024FFF73DFE3846FFF703FFBD
:10398000FFF78AFE4046FFF7FEFEFFF785FEFFF7D2
:1039900031FE791CC8B2FFF7F6FEFFF77DFE00BFCF
:1039A0000DE0681EA04204D00120FFF74BFF305508
:1039B00003E00020FFF746FF3055601CC4B2AC4264
:1039C000EFDBFFF747FE2046BDE8F081000C014029
:1039D000A4812142008021422DE9F04180460D461C
:1039E00016461F460024FFF705FE4046FFF7CBFEB4
:1039F000FFF752FE2846FFF7C6FEFFF74DFE00BF59
:103A000006E0385DFFF7BFFEFFF746FE601CC4B25C
:103A1000B442F6DBFFF71EFE0120BDE8F08170B571
:103A200005460E46144631462846FFF77AFF2070B9
:103A3000012070BD37B504460D4602AB0122294670
:103A40002046FFF7C9FF3EBD2DE9F8438046894671
:103A500015461C46089E6A4649464046FFF7DFFF6A
:103A6000F8B10120A040401E291B491C8840C7B264
:103A7000281B401C06FA00F0C6B23E409DF800002C
:103A8000B84300909DF80000304300909DF800205E
:103A900049464046FFF7CEFF10B10120BDE8F8834C
:103AA00000BF0020FAE72DE9F84307468846144690
:103AB0001D466A4641463846FFF7B1FFB8B10120BE
:103AC000A040C6B225B19DF800003043009003E04D
:103AD0009DF80000B04300909DF800204146384614
:103AE000FFF7A8FF10B10120BDE8F88300BF002058
:103AF000FAE7000010B586B0044601210820FDF762
:103B0000E7F901218804FDF7F0F94FF48060ADF882
:103B1000140003208DF8160018208DF8170005A951
:103B20008F48FCF7B3FE4FF40060ADF8140004209A
:103B30008DF8170005A98A48FCF7A8FE27208DF804
:103B4000000000208DF8010001208DF802008DF8A2
:103B500003006846FCF747FB01940020ADF808001D
:103B6000ADF80A00ADF80C00ADF810000C20ADF86F
:103B70000E0001A97B48FEF760F9012240F22551B1
:103B80007848FEF7F2F901217648FEF7E2F906B02F
:103B900010BD2DE9FF5F7348008800F02000002869
:103BA00073D07048FEF746FA6F49087008460078EF
:103BB0006E4908706C480078412809D16C4800783B
:103BC000412805D16B48007810B901206949087077
:103BD00065480078452806D165480078452802D117
:103BE0006549086003E060480078634908605E4802
:103BF00000780A2804DA5C4800785F49086006E02B
:103C0000594800785A2802D100205B49086056487C
:103C1000007857490870544800787B2802D1012069
:103C200056490870504800787D2802D10220534937
:103C300008705248007801280AD14B480078504952
:103C4000504A127888544F480078401C4D490870FB
:103C50004A480078022818D14948C078502803D132
:103C60000120494908706CE04548C078572803D1C5
:103C700001204649087064E041484078232860D01C
:103C8000404800784249087035E067E03D490978CE
:103C90003F4A1278881A02F050FE804642460B4690
:103CA00000203C4901F0C2FE04460D46384909781F
:103CB000491E334A515CA1F1300002F03EFE064637
:103CC00022462B4602F0A0FE82468B463248006810
:103CD00003F0AAF952465B46CDE9000102F0EAFB87
:103CE000CDE9020102F0B4FB2B49086028480078B6
:103CF000401E27490870264800780428C6DA204864
:103D00004078303809281BD2DFE800F0050A0F148C
:103D100015161718190020480068204908600FE0A0
:103D20001D4800681E4908600AE01B4800681D49DC
:103D3000086005E004E003E002E001E000E000BF0D
:103D400000BF00200D4908700E4908701049087026
:103D50001149086032210A4801F0C8FCBDE8FF9F04
:103D6000000C014000480040D00000202E00002040
:103D7000D40000202F0000203C000020D1000020B3
:103D800088060020D2000020A2000020A30000200E
:103D9000D300002000002440D80000209400002020
:103DA000700000207400002008B501211420FDF7E8
:103DB0008FF848208DF803004FF40050ADF8000054
:103DC00003208DF802006946FE48FCF75FFD1020D5
:103DD0008DF803008002ADF800006946F948FCF751
:103DE00055FD4FF40040ADF800006946F548FCF77A
:103DF0004DFD0420ADF800006946F348FCF746FD90
:103E000008BD38B50446012000900020EF494870F5
:103E1000012000902DE0BDF80000204018B10120E5
:103E2000EB49086002E00020E94908600120E94907
:103E300008600520FEF75FFB0020E749C1F8880114
:103E40000520FEF758FB0120E349C1F88801E3484B
:103E5000D0F8340130B1DD484078BDF80010084397
:103E6000DA494870BDF800004FF6FF7101EA4000E2
:103E70000090BDF80000FF28CDDD1020FEF73BFBD1
:103E800038BD10B50020D249091D0860D449087812
:103E9000FFF7B7FFD2494878FFF7B3FF0120CF49BA
:103EA000C1F8BC01C9484078732801D0012010BD79
:103EB0000020FCE738B50020C549091D0860C84945
:103EC0000878FFF79EFFC6494878FFF79AFF02245B
:103ED0002FE001200090009022E00120BD49086001
:103EE0000520FEF708FB0020BB49C1F8880105202A
:103EF000FEF701FB0120B849C1F88801B748D0F8A6
:103F0000340130B1B148005DBDF800100843AF493D
:103F10000855BDF800004FF6FF7101EA400000901F
:103F2000BDF80000FF28D8DD1020FEF7E4FA601C81
:103F3000C4B2092CCDDB0120A549091D086038BD9C
:103F4000002004E00021A14A1154411CC8B20928F4
:103F5000F8DB704710B5FFF7F3FFFFF7ABFF9B48A7
:103F6000C0789A49097940EA01209E4908800021D9
:103F70000FE09D4810F81100401E012202FA00F0E7
:103F8000984A1288104010B9481CC0B210BD481C95
:103F9000C1B21029EDDB0020F8E701468B48405CF8
:103FA000704770B505460C4600208949091D086018
:103FB0001020FEF7A0FA0120FFF723FF4220FFF7B1
:103FC00020FF0020FFF71DFF2846FFF71AFF2046BD
:103FD000FFF717FF0020FFF714FF0020FFF711FF86
:103FE0000020FFF70EFF0020FFF70BFF01207B49A9
:103FF000C1F8BC011020FEF77EFA70BD10B500209C
:104000007349091D08601020FEF775FA0120FFF7BB
:10401000F8FE4220FFF7F5FE0020FFF7F2FE002039
:10402000FFF7EFFE0020FFF7ECFE01206B49C1F81F
:10403000BC011020FEF75FFA10BD10B500206449E6
:10404000091D08601020FEF756FA0120FFF7D9FE7F
:104050004320FFF7D6FE0020FFF7D3FE0120FFF735
:10406000D0FE0020FFF7CDFE0020FFF7CAFE0020A3
:10407000FFF7C7FE0020FFF7C4FE0020FFF7C1FED8
:1040800001205649C1F8BC011020FEF734FA10BDDA
:1040900010B500204E49091D08600120FFF7B1FE50
:1040A0004420FFF7AEFE0020FFF7ABFE0120FFF734
:1040B000A8FE0320FFF7A5FE0020FFF7A2FE0020C8
:1040C000FFF79FFE0020FFF79CFE0020FFF799FE00
:1040D00001204249C1F8BC011020FEF70CFA10BDC6
:1040E00010B500203A49091D08601020FEF703FAB8
:1040F0000120FFF786FE4D20FFF783FE0020FFF72B
:1041000080FE0020FFF77DFE0120FFF77AFE0120F0
:104110003249C1F8BC011020FEF7EDF910BD10B511
:1041200000202B49091D08601020FEF7E4F901204A
:10413000FFF767FE4320FFF764FE0020FFF761FEF4
:104140000020FFF75EFE5A20FFF75BFE5A20FFF7C4
:1041500058FE5A20FFF755FE5A20FFF752FE5A200C
:10416000FFF74FFE01201D49C1F8BC011020FEF7EA
:10417000C2F910BD10B5FFF741FFFFF73FFFFFF792
:104180003DFFFFF75AFFFFF783FFFFF7C8FF10BDA2
:1041900010B5FFF7DFFE154908600720FFF7FDFEA9
:1041A000134908600820FFF7F8FE1249086005204F
:1041B000FFF7F3FE104908600620FFF7EEFE0F49F7
:1041C00008601DE00010014000080140BA06002010
:1041D000B80122428801214200002142000022420F
:1041E000DE000020DC000020E00000209000002025
:1041F0008000002084000020880000208C00002027
:104200000B480068042805D10A480078012801D12C
:10421000094908600848006848B1084800687628DD
:1042200005DA04480078012801D10549087010BD5D
:10423000900000202C0000200001002084000020BD
:104240002D000020874888494860884848607047AA
:104250008548006940F080008349086170478248C2
:10426000C16801F0010008B10120704701F00400AD
:1042700008B10220F9E701F0100008B10320F4E7CB
:104280000020F2E770B5044600BFFFF7E8FF0546DF
:10429000012D00D006E00120FEF72DF9601E84B24A
:1042A000002CF2D100BF04B9FF25284670BD70B5BF
:1042B0000546002445F6FF70FFF7E4FF0446C4B945
:1042C0006948006940F00200674908610846456195
:1042D000006940F04000086145F6FF70FFF7D2FF2B
:1042E0000446012C05D06048006920F002005E49B8
:1042F0000861204670BD70B505460E46FF20FFF7E9
:10430000C1FF044694B95848006940F0010056497D
:1043100008612E80FF20FFF7B5FF0446012C05D071
:104320005148006920F001004F490861204670BDE6
:104330000146088870472DE9F04105460E461746AC
:10434000002407E036F814102846FFF7D4FFAD1C10
:10435000601C84B2BC42F5DBBDE8F08130B5034699
:104360000C461546002207E01846FFF7E1FF24F847
:1043700012009B1C501C82B2AA42F5DB30BD2DE915
:10438000F05F80468A461746B8F1006F02D338487E
:10439000804501D3BDE8F09FFFF754FFA8F1006B03
:1043A0004FEA9B25CBF34809C9F50074A74200DC0E
:1043B0003C4647E04FF0006101EB85208A142D490F
:1043C000FFF7CCFF00260BE009EB0600294931F886
:1043D00010004FF6FF71884200D003E0701C86B2D7
:1043E000A642F1DB00BFA6421BDA4FF0006101EBF1
:1043F0008520FFF75CFF002608E03AF8160006EB80
:1044000009011C4A22F81100701C86B2A642F4DB96
:104410004FF0006101EB85208A141649FFF78BFFEE
:1044200004E0224651464046FFF785FFA74200D1EF
:1044300009E06D1C4FF000090AEB440A381B87B2F3
:104440004FF40074B6E700BFFFF702FF00BFA1E71B
:1044500013B50446012201A92046FFF790FF1CBDB9
:10446000704770472301674500200240AB89EFCDBC
:1044700000000108C406002070B504460D46294618
:10448000204602F0FDFD064602F02AFFFE490860C4
:104490002946204603F0AAF8064602F021FFFB4910
:1044A000086070BD70B5FEF7D7FA0546012D07D13B
:1044B000F748007808B9012000E00020F4490870AE
:1044C000022D07D1F348007808B9012000E0002050
:1044D000F0490870FEF7D3FA0446012C07D1ED48E5
:1044E000007808B9012000E00020EA49087070BD9A
:1044F0000146002901DA484200E00846704700B54D
:1045000003460A46E4480078012803D0E3480078CF
:10451000012805D1002B00DD0023002A00DD002248
:10452000002B07DD0020DE4908600120DD49C1F8CD
:10453000BC0106E00120DA4908600020D949C1F831
:10454000BC011846FFF7D4FFD7490880002A08DDD0
:104550000020D349091F08600120D249C1F8B001E9
:1045600007E00120CE49091F08600020CD49C1F8AD
:10457000B0011046FFF7BCFFCB490C31088000BDED
:1045800041F6F420C94909684242914202DA4142A7
:10459000C64A1160C5490968814201DDC349086006
:1045A000C34909684242914202DA4142C04A11605D
:1045B000BF490968814201DDBD49086070472DE9A6
:1045C000F05F04460E46A01BBA4908600846006822
:1045D00002F0C2FE8346B8480168584602F008FF60
:1045E000824602F07DFE0746B248006802F0B4FE43
:1045F0008346B2480168584602F0FAFE824602F04D
:104600006FFE8046AE490968601A02F0A5FE834637
:10461000AC480168584602F0EBFE824602F060FEAC
:104620000546A9490968681A02F096FE8346A7481C
:104630000168584602F0DCFE824602F051FE8146D7
:1046400007EB080028444844A14909680844A049E8
:104650000860984800689F490860994804609A4833
:1046600005609B480068BDE8F09F2DE9F05F0446B7
:104670000E46A01B984908600846006802F06CFED0
:1046800083468D480168584602F0B2FE824602F029
:1046900027FE07469048006802F05EFE8346874882
:1046A0000168584602F0A4FE824602F019FE8046D8
:1046B0008A490968601A02F04FFE83468148016802
:1046C000584602F095FE824602F00AFE05468449ED
:1046D0000968681A02F040FE83467C480168584623
:1046E00002F086FE824602F0FBFD814607EB0800E1
:1046F000284448447B49096808447A490860764858
:104700000068794908607548046075480560754817
:104710000068BDE8F09F0146B1F57A7F03DB5C4A93
:104720001278012A01D1012000E0002070472DE914
:10473000F04F89B06D480078012871D16C4800783D
:1047400001286DD16B48006828B900206A490860CB
:104750006A49086001E267480068412807D1684853
:10476000006865490860002064490860F5E1614817
:104770000068422807D1624800685F4908606148C4
:104780005E490860E9E15B480068432806D10020E3
:10479000594908605B4859490860DEE1554800689E
:1047A000442809D15648006880F00040524908600A
:1047B000554852490860D0E14E480068452809D163
:1047C0004F48006880F000404B49086000204B498A
:1047D0000860C2E147480068462809D14848006897
:1047E00080F0004044490860464844490860B4E10C
:1047F00040480068472806D100203F4908604248E9
:104800003E490860A9E13B4800684828A2D13C48DD
:104810000068394908603C48384908609DE1FFE775
:104820001E48007870B33948334908603849097820
:10483000A1F1400002F090FD364908603648016859
:104840003448006802F0D2FE81464FF07E5102F0FB
:10485000CFFD804602F0E8FB06460F462D48006873
:1048600002F0E2FB80462D4A2D4B02F0CDF8824645
:1048700032463B4601F01EFE044601F0E9FD1F49A9
:1048800008604FE053E000005C0000206000002062
:1048900032000020310000202A0000202B000020E0
:1048A000B881214200802142342C01405000002078
:1048B000540000202C010020700000207400002013
:1048C00038010020780000203C0100207C000020FE
:1048D00030010020340100201801002024010020B4
:1048E000280100201C0100202001002029000020B8
:1048F0002F0000203C000020400000204C00002041
:10490000940000200000A0410000A0C1000020424F
:10491000A00000204001002044010020A4703D0AB6
:10492000D7A3C03FFE480068FE49086015E1FE4875
:104930000078002855D0FD48FD490860FD49096808
:10494000C1F1640002F008FDF5490860F54801680E
:10495000F348006802F04AFE064602F065FB044692
:104960000022F54B02F050F8CDE90401EC48006854
:1049700002F05AFB0646F14AF14B02F045F80446B4
:104980000D46E748006802F0ABFC0090FFF7B0FD71
:10499000C0F1000B584602F0DFFC0190E0480168CE
:1049A000019802F025FD824602F03EFB0646E54AEC
:1049B000E54B02F029F8804622462B4602F04AFADF
:1049C000CDE90201DDE9042302F044FACDE9060154
:1049D00001F03EFDDD490860D1480068D14908601A
:1049E000BBE0DB4800780128A0D1DA480078012834
:1049F0009CD11424D8480068C0F18005D7480068CD
:104A0000C0F180066042854202DDA54200DA002541
:104A10006042864202DDA64200DA0026284602F005
:104A20009BFC07464FF08641CD48006802F096FB9C
:104A30008046394602F0DCFCBD4908600021BC48D4
:104A4000006802F0A1FD12D8304602F085FC8046D5
:104A50004FF08641C348006802F080FB80F00047B9
:104A60004146384602F0C4FCB84908600FE03046C1
:104A700002F072FC07464FF08641BA48006802F027
:104A80006DFB8046394602F0B3FCB0490860B64879
:104A900000680B282BD1B5480078401CC0B2B34940
:104AA0000870142858D10020AF490860AF49087039
:104AB000AF49AB48006802F0E3FAA949074608602D
:104AC0009A4902F061FD02D29848A5490860A949B7
:104AD000A448006802F0D4FAA24907460860A64933
:104AE00002F052FD38D2A4489E49086034E09E4846
:104AF00000680C282BD1A1480078401CC0B29F4907
:104B00000870142828D10020974908609B49087034
:104B100097499348006802F069FD9149074608608B
:104B2000974902F031FC02D295488D4908609149BD
:104B30008C48006802F05AFD8A49074608608D4992
:104B400002F022FC08D28B488649086004E000206D
:104B5000864908708949087000BF09B0BDE8F08F28
:104B6000884800888849088005208849088014E022
:104B700084488649098830F81100834909888842A9
:104B800006DB80488149098830F811007E49088099
:104B90007E480088401C7D4908807C4800887B282E
:104BA000E6DB784800887A49088005207749088044
:104BB00014E074487549098830F81100744909886F
:104BC000884206DC6F487149098830F81100704945
:104BD00008806E480088401C6C4908806B4800883B
:104BE0007B28E6DB0520694908801BE066490988C7
:104BF000674A1288881A6349644A128831F8121089
:104C000000EBD072624B1B8803EB6202914204DD21
:104C10005E4800885F49088008E05C480088401CC6
:104C20005A490880594800887B28DFDB00BF7A207A
:104C3000564908801BE054490988554A1288881A49
:104C40005049524A128831F8121000EBD072504B82
:104C50001B8803EB6202914204DD4C4800884E49F8
:104C6000088008E049480088401E484908804748B5
:104C700000880528DFDC00BF46490988464A1288BB
:104C8000881800EBD071C1F34701444A1170704796
:104C900010B501218807FDF778F800283FD00121E1
:104CA0008807FDF783F83E48007801280BD13D487E
:104CB0000078401CC0B23B490870052803D1002091
:104CC0000870374908700320FEF738FC4042364927
:104CD00008600420FEF732FC404234490860344842
:104CE000007818B1FEF7ADF9FFF73AFF0E480078EB
:104CF000A0B10220FEF78EF92E4908600920FEF7C8
:104D000089F92D4908600120FEF784F92B490860D4
:104D100028480068096801EBC10251E069E0B4E08D
:104D200040010020440100202A0000200000204211
:104D300040000020B00000200000F03F7B14AE4790
:104D4000E17A743F79E9263108AC6C3F4C000020D1
:104D50002C0000202D00002084000020880000206E
:104D6000980000209C0000209000002048010020B6
:104D70000000A0400000A0410000A0424901002026
:104D80000000704160010020500100204A01002015
:104D9000520100204C0100204E010020A000002004
:104DA0006D0000206C00002034000020380000203E
:104DB0002B000020A4000020AC000020A800002050
:104DC00002EB011100EB810130480068C72200FBB3
:104DD00002102F4908602F4800682F4909680844CD
:104DE0002A49096808442A49096891FBF0F02B49CF
:104DF0000860FFF79CFC2A4801682A480068FFF712
:104E00003BFB29480068FFF786FCC0B927480168CA
:104E100027480068FFF729FC2649086026480168F2
:104E200026480068FFF7CBFB25490860FFF7A8FB81
:104E3000234801681F480068FFF761FB03E0002179
:104E40000846FFF75CFBFEF77AF91E4908601E482A
:104E50000068401C1C4908601C4800681949096822
:104E600008441A4908601848006832280BD10846DF
:104E70000068322190FBF1F00B49086000201349D3
:104E8000086011490860FFF70DFB10BDAC00002061
:104E900014010020A4000020A8000020B000002081
:104EA0004C00002040000020640000205C00002036
:104EB0003400002050000020600000203800002056
:104EC00054000020080100200C01002010010020E7
:104ED0002DE9F04106460D46174600243A4629467C
:104EE0003046FDF7ECFE3A4629463046FDF7E7FE30
:104EF00000BF07E02819C1B23A463046FDF7DFFE91
:104F0000601CC4B2082CF5DBBDE8F08170B500244C
:104F100010E0FB4830F81400FA490978884201DAB9
:104F2000012500E000252A4600212046FFF7D0FF9A
:104F3000601CC4B2802CECDB70BD38B5F248007840
:104F4000F8B1F2A200210846FDF78FFFF148006892
:104F500002F0E2F904460C200323224600210090CF
:104F60002D20FDF738FFECA20A210020FDF77DFF80
:104F70000C2003230090E94802780A211E20FDF747
:104F80002AFFE748007800B3E0A200210846FDF7B9
:104F90006CFFE448006802F0BFF904460C200323CC
:104FA0002246002100902D20FDF715FFDAA20A21EC
:104FB0000020FDF75AFF0C2003230090DA480A2155
:104FC00002681E20FDF707FF5DE0D8480078F0B1C9
:104FD000FFF79CFFD6A20A210020FDF746FF0C2018
:104FE00003230090D34802780A212320FDF7F3FE23
:104FF000D1A20A214620FDF738FF0C2003230090A0
:10500000C04802780A215F20FDF7E5FE3BE0CB486F
:105010000078002837D0CAA200210846FDF725FFF6
:105020000C2004230090C748002102680A20FDF7E5
:10503000D2FEC5A200212820FDF717FF0C20042373
:105040000090C248002102683220FDF7C4FEC0A2D1
:1050500000215020FDF709FF0C2004230090BD48DB
:10506000002102685A20FDF7B6FEB1A20A210020F5
:10507000FDF7FBFE0C2004230090B7480A210268CC
:105080001420FDF7A8FEB5A214210020FDF7EDFEC7
:10509000B548006800280FDAB4A214215020FDF7AB
:1050A000E4FE0C2005230090AF4800684242142122
:1050B0005F20FDF790FE0DE0ADA214215020FDF71A
:1050C000D4FE0C2005230090A748142102685F201D
:1050D000FDF781FEA7A21E210020FDF7C6FEA8480D
:1050E000006800280FDAA1A21E215020FDF7BDFEA6
:1050F0000C2005230090A248006842421E215F2038
:10510000FDF769FE0DE09AA21E215020FDF7ADFECD
:105110000C20052300909A481E2102685F20FDF7AD
:105120005AFE98A228210020FDF79FFE97A2282171
:105130004420FDF79AFE96A228215A20FDF795FEFD
:1051400094480068642190FBF1F40C20022322466D
:10515000282100903720FDF73EFE8E48006864212C
:1051600090FBF1F201FB12040C20022322462821BD
:1051700000904E20FDF72FFE86480068642190FBCA
:10518000F1F201FB12000A2807DA0C2002230022A8
:10519000282100904820FDF71EFE7F48007828B99E
:1051A0007EA228216720FDF760FE04E07CA2282172
:1051B0006720FDF75AFE7BA232210020FDF755FE45
:1051C0005148007828B179A232212820FDF74DFE00
:1051D00019E05348007828B175A232212820FDF744
:1051E00044FE10E05148007828B172A232212820F4
:1051F000FDF73BFE07E05148007820B16EA2322156
:105200002820FDF732FEFDF706FD38BD2DE9F047F9
:1052100086B060480068A0F539704000032190FB1B
:10522000F1FABAF1000F01DA4FF0000ABAF1640F97
:1052300001DD4FF0640A5248006801F07EFB07462A
:105240005E4A5F4B01F0E0FB054601F047FB8146FB
:10525000B9F1000F01DAC9F100094348006801F013
:105260006CFB0546554A564B01F0CEFB074601F054
:1052700035FB0446002C00DA64425248007808B935
:10528000012000E000204F490870244800780128E0
:105290001FD14D48006802F023F805464B480068CE
:1052A00002F01EF806461B48006802F019F807468F
:1052B0000020029003900490059000902B46324607
:1052C0003946019042A000F095F90020134908707A
:1052D00013E03C48007838B909F0FF02E1B25346C8
:1052E00043A000F087F908E0254803681E480268DB
:1052F0002848016842A000F07DF906B0BDE8F087BB
:1053000060010020A10000202900002053504545E5
:10531000440000009400002052580000A200002029
:105320002C00002098000020900000202B0000207E
:105330005A000000A0000020590000002A000020B0
:105340004C000000A40000204D000000A800002038
:1053500052000000AC000020B0000020456E636FDA
:105360004C45465400000000340000202D00000091
:105370002B000000456E636F5249474854000000FF
:1053800038000020564F4C54414745002E00000085
:105390005600000064000020320000204F2D4E0017
:1053A0004F4646004D4F44452D00000041505000EF
:1053B0005053320043434400454C45009A99999913
:1053C0009999F13F5C0100207400002070000020DA
:1053D0007B4325643A25643A25643A25643A25647A
:1053E0003A25643A25643A25643A25647D24000010
:1053F0007B4125643A25643A25647D240000000041
:105400007B4225643A25643A25643A25647D24006C
:1054100010B53B48006801F09FFF0446012100F0F1
:10542000BEF83848006801F097FF0446022100F0FA
:10543000B6F8022000F0C5F833490870002033495F
:10544000087012E000BF3248008800F040000028D9
:10545000F9D030482D490978405C2D49091D088054
:105460002A480078401C29490870284800782649B5
:1054700009788842E6DB10BD10B527A20021084656
:10548000FDF7F3FC29A20A210020FDF7EEFC2BA278
:1054900014210020FDF7E9FC2C48007830B1AFF270
:1054A000F4021E213220FDF7E0FC1CE028480078C1
:1054B00030B1AFF204121E213220FDF7D6FC12E00B
:1054C0002448007830B1AFF214121E213220FDF7CB
:1054D000CCFC08E02048007828B1AFF224121E214D
:1054E0003220FDF7C2FC1DA228210020FDF7BDFCE3
:1054F0001FA232210020FDF7B8FCFDF78CFB10BD88
:105500003400002038000020550100205401002004
:1055100000380140C40A0020544F20507265737354
:1055200020557365724B657900000000544F20537D
:10553000656C656374204D6F64650000437572721D
:10554000656E74204D6F646520497300290000204A
:105550002C0000202B0000202A000020442D507237
:105560006573732055736572204B657900000000E8
:10557000544F20456E642053656C656374696F6E8B
:105580000000000070B503461C46002004E0255CC6
:1055900016188D55451CE8B20428F8DB70BD13B50C
:1055A0000C46012C01DB0A2C00DD1CBD601E012114
:1055B00001EB8000C2B20D496846FFF7E3FF00BF70
:1055C000F3E70146012901DB0A2901DD00207047CC
:1055D0002420064A10708800401CC2B28800401C7B
:1055E000024B1A548800801CC0B2F0E7C40A0020A5
:1055F000704700000FB4044910B503AA029800F0E8
:10560000FFF810BC5DF814FBB80000202DE9F04154
:105610000E460446002020622046E168884730B3E9
:10562000252805D0D4E901219047206A401CF2E7E3
:10563000E168204600278847050018D0A5F1410001
:10564000192802D820354FF40067324629462046F3
:105650002760FAF7A5FD40B1012804D0F61D26F019
:1056600007060836D8E7361DD6E72846DAE7206A67
:10567000BDE8F0812DE9F041064600241068752947
:10568000314616A510D0AFF30080002802DA404260
:1056900013A507E031688A0701D512A502E0490782
:1056A00004D511A5012401E0AFF3008000210A22F6
:1056B00006F1240709E0B0FBF2FCB0FBF2F302FBB9
:1056C0001C00303078541846491C0028F3D123467A
:1056D0002A463046BDE8F04100F039B8000000002D
:1056E0002D0000002B000000200000004FF0000201
:1056F0000429C0F0128010F0030C00F09580CCF16A
:10570000040CBCF1020F18BF00F8012BA8BF20F851
:10571000022BA1EB0C0100F087B85FEAC17C24BF2B
:1057200000F8012B00F8012B48BF00F8012B70474F
:10573000704770477047704710B500F09BF80068DD
:1057400010BD10B5044600F095F8046010BD2DE9B9
:10575000F0470D4699469246044600F12408016838
:10576000880604D5E06921F01001216000E00120E5
:10577000A84201DD471B00E00027A1697A1902EB6E
:105780000900081AA0612078C00602D42046AFF3B1
:105790000080002608E0D4E901211AF806009047AD
:1057A000206A401C761C20624E45F4DB2078C0063F
:1057B0000AD52046AFF3008006E0D4E9012130206D
:1057C0009047206A401C2062381EA7F10107F4DCD4
:1057D00007E0D4E9012118F805009047206A401C31
:1057E0002062281EA5F10105F3DC2046AFF30080FE
:1057F0002078000602D50220BDE8F0870120FBE7F3
:10580000074B70B50D467B4400F03DF80446284632
:1058100000F04CF810B14FF0FF3070BD204670BD65
:10582000CFD0FFFF4FF0000200B5134694469646D6
:10583000203922BFA0E80C50A0E80C50B1F12001A3
:10584000BFF4F7AF090728BFA0E80C5048BF0CC051
:105850005DF804EB890028BF40F8042B08BF7047AF
:1058600048BF20F8022B11F0804F18BF00F8012B21
:105870007047000000487047F00A002001694A1C88
:1058800002610878704700B58FB0CDE90131002181
:10589000059105497944CDE9031011466846FFF7A3
:1058A000B5FE0FB000BD0000E5FFFFFF007B00F07C
:1058B0008000704700487047F00A00207546FFF7E7
:1058C000F9FFAE4605006946534620F007008546BD
:1058D00018B020B5FCF780FCBDE820404FF0000672
:1058E0004FF000074FF000084FF0000B21F00701C8
:1058F000AC46ACE8C009ACE8C009ACE8C009ACE80B
:10590000C0098D46704710B50446AFF300802046AD
:10591000BDE81040FAF756BC490050EAC12018BF54
:1059200004204A0D18BF40F0010040F2FF72B2EBB4
:10593000515F08BF40F00200012808BF05207047F2
:105940002DE9F0414F1E00EBC7010446D1E90001EB
:1059500015461E4637F006020DD02A46334601F0A2
:1059600053F87F1E04EBC703D3E9002300F0A2FD28
:1059700037F00602F1D1022F25D0042F13D0062FC5
:1059800018BFBDE8F0812A46334601F03DF8D4E95E
:105990000A2300F08FFD2A46334601F035F8D4E99A
:1059A000082300F087FD2A46334601F02DF8D4E99C
:1059B000062300F07FFD2A46334601F025F8D4E99E
:1059C000042300F077FD2A46334601F01DF8D4E9A0
:1059D000022300F06FFD2A46334601F015F8D4E9A2
:1059E0000023BDE8F04100F065BD00000022134631
:1059F0001046014900F01ABE0000F03F00F05ABD09
:105A0000002213461046114600F010BE40F201324B
:105A100000204FF0E04101F090BE0000024A00205B
:105A2000110701F08ABE000001FDFFFF2DE9F04DD6
:105A30001D460C4698B0174621F0004123F0004364
:105A4000002814BF4FF0010C4FF0000C0CEB440C7D
:105A5000FE4A0CEB02064FEA620C66452BD33E0071
:105A600018BF012606EB45061644F94A964222D392
:105A7000F84A53EA070C02D0944205D148B918B04D
:105A800000201146BDE8F08D002808BF4FF0000C43
:105A900001D04FF0010C0CEB440212F5001F0AD8A4
:105AA000002F14BF4FF0010C4FF0000C0CEB45021F
:105AB00012F5001F07D918B03A462B462146BDE81B
:105AC000F04DFFF79BBF0022DFF88CA3002CB8BF7E
:105AD000534526DADFF884C36345A8BF022220DAE3
